{
  "_format": "hh-sol-artifact-1",
  "contractName": "PokemonNFTGame",
  "sourceName": "contracts/PokemonNFTGame.sol",
  "abi": [
    {
      "inputs": [
        {
          "internalType": "string[]",
          "name": "pokemonNames",
          "type": "string[]"
        },
        {
          "internalType": "string[]",
          "name": "pokemonImageURIs",
          "type": "string[]"
        },
        {
          "internalType": "uint256[]",
          "name": "pokemonHp",
          "type": "uint256[]"
        },
        {
          "internalType": "uint256[]",
          "name": "pokemonAttackDmg",
          "type": "uint256[]"
        },
        {
          "internalType": "string[]",
          "name": "pokemonTypes",
          "type": "string[]"
        },
        {
          "internalType": "string",
          "name": "godName",
          "type": "string"
        },
        {
          "internalType": "string",
          "name": "godImageURI",
          "type": "string"
        },
        {
          "internalType": "uint256",
          "name": "godHp",
          "type": "uint256"
        },
        {
          "internalType": "uint256",
          "name": "godAttackDamage",
          "type": "uint256"
        },
        {
          "internalType": "string",
          "name": "godType",
          "type": "string"
        }
      ],
      "stateMutability": "nonpayable",
      "type": "constructor"
    },
    {
      "anonymous": false,
      "inputs": [
        {
          "indexed": true,
          "internalType": "address",
          "name": "owner",
          "type": "address"
        },
        {
          "indexed": true,
          "internalType": "address",
          "name": "approved",
          "type": "address"
        },
        {
          "indexed": true,
          "internalType": "uint256",
          "name": "tokenId",
          "type": "uint256"
        }
      ],
      "name": "Approval",
      "type": "event"
    },
    {
      "anonymous": false,
      "inputs": [
        {
          "indexed": true,
          "internalType": "address",
          "name": "owner",
          "type": "address"
        },
        {
          "indexed": true,
          "internalType": "address",
          "name": "operator",
          "type": "address"
        },
        {
          "indexed": false,
          "internalType": "bool",
          "name": "approved",
          "type": "bool"
        }
      ],
      "name": "ApprovalForAll",
      "type": "event"
    },
    {
      "anonymous": false,
      "inputs": [
        {
          "indexed": false,
          "internalType": "uint256",
          "name": "newGodHp",
          "type": "uint256"
        },
        {
          "indexed": false,
          "internalType": "uint256",
          "name": "newPlayerHp",
          "type": "uint256"
        }
      ],
      "name": "AttackComplete",
      "type": "event"
    },
    {
      "anonymous": false,
      "inputs": [
        {
          "indexed": false,
          "internalType": "address",
          "name": "sender",
          "type": "address"
        },
        {
          "indexed": false,
          "internalType": "uint256",
          "name": "tokenId",
          "type": "uint256"
        },
        {
          "indexed": false,
          "internalType": "uint256",
          "name": "pokemonIndex",
          "type": "uint256"
        }
      ],
      "name": "PokemonNFTMinted",
      "type": "event"
    },
    {
      "anonymous": false,
      "inputs": [
        {
          "indexed": true,
          "internalType": "address",
          "name": "from",
          "type": "address"
        },
        {
          "indexed": true,
          "internalType": "address",
          "name": "to",
          "type": "address"
        },
        {
          "indexed": true,
          "internalType": "uint256",
          "name": "tokenId",
          "type": "uint256"
        }
      ],
      "name": "Transfer",
      "type": "event"
    },
    {
      "inputs": [
        {
          "internalType": "address",
          "name": "to",
          "type": "address"
        },
        {
          "internalType": "uint256",
          "name": "tokenId",
          "type": "uint256"
        }
      ],
      "name": "approve",
      "outputs": [],
      "stateMutability": "nonpayable",
      "type": "function"
    },
    {
      "inputs": [],
      "name": "attackGod",
      "outputs": [],
      "stateMutability": "nonpayable",
      "type": "function"
    },
    {
      "inputs": [
        {
          "internalType": "address",
          "name": "owner",
          "type": "address"
        }
      ],
      "name": "balanceOf",
      "outputs": [
        {
          "internalType": "uint256",
          "name": "",
          "type": "uint256"
        }
      ],
      "stateMutability": "view",
      "type": "function"
    },
    {
      "inputs": [],
      "name": "checkIfUserHasNFT",
      "outputs": [
        {
          "components": [
            {
              "internalType": "uint256",
              "name": "pokemonIndex",
              "type": "uint256"
            },
            {
              "internalType": "string",
              "name": "name",
              "type": "string"
            },
            {
              "internalType": "string",
              "name": "imageUri",
              "type": "string"
            },
            {
              "internalType": "string",
              "name": "pokemonType",
              "type": "string"
            },
            {
              "internalType": "uint256",
              "name": "hp",
              "type": "uint256"
            },
            {
              "internalType": "uint256",
              "name": "maxHp",
              "type": "uint256"
            },
            {
              "internalType": "uint256",
              "name": "attackDamage",
              "type": "uint256"
            }
          ],
          "internalType": "struct PokemonNFTGame.PokemonAttributes",
          "name": "",
          "type": "tuple"
        }
      ],
      "stateMutability": "view",
      "type": "function"
    },
    {
      "inputs": [],
      "name": "getAllDefaultPokemon",
      "outputs": [
        {
          "components": [
            {
              "internalType": "uint256",
              "name": "pokemonIndex",
              "type": "uint256"
            },
            {
              "internalType": "string",
              "name": "name",
              "type": "string"
            },
            {
              "internalType": "string",
              "name": "imageUri",
              "type": "string"
            },
            {
              "internalType": "string",
              "name": "pokemonType",
              "type": "string"
            },
            {
              "internalType": "uint256",
              "name": "hp",
              "type": "uint256"
            },
            {
              "internalType": "uint256",
              "name": "maxHp",
              "type": "uint256"
            },
            {
              "internalType": "uint256",
              "name": "attackDamage",
              "type": "uint256"
            }
          ],
          "internalType": "struct PokemonNFTGame.PokemonAttributes[]",
          "name": "",
          "type": "tuple[]"
        }
      ],
      "stateMutability": "view",
      "type": "function"
    },
    {
      "inputs": [
        {
          "internalType": "uint256",
          "name": "tokenId",
          "type": "uint256"
        }
      ],
      "name": "getApproved",
      "outputs": [
        {
          "internalType": "address",
          "name": "",
          "type": "address"
        }
      ],
      "stateMutability": "view",
      "type": "function"
    },
    {
      "inputs": [],
      "name": "getGod",
      "outputs": [
        {
          "components": [
            {
              "internalType": "string",
              "name": "name",
              "type": "string"
            },
            {
              "internalType": "string",
              "name": "imageURI",
              "type": "string"
            },
            {
              "internalType": "uint256",
              "name": "hp",
              "type": "uint256"
            },
            {
              "internalType": "uint256",
              "name": "maxHp",
              "type": "uint256"
            },
            {
              "internalType": "uint256",
              "name": "attackDamage",
              "type": "uint256"
            },
            {
              "internalType": "string",
              "name": "godType",
              "type": "string"
            }
          ],
          "internalType": "struct PokemonNFTGame.MultiverseGod",
          "name": "",
          "type": "tuple"
        }
      ],
      "stateMutability": "view",
      "type": "function"
    },
    {
      "inputs": [
        {
          "internalType": "address",
          "name": "owner",
          "type": "address"
        },
        {
          "internalType": "address",
          "name": "operator",
          "type": "address"
        }
      ],
      "name": "isApprovedForAll",
      "outputs": [
        {
          "internalType": "bool",
          "name": "",
          "type": "bool"
        }
      ],
      "stateMutability": "view",
      "type": "function"
    },
    {
      "inputs": [
        {
          "internalType": "uint256",
          "name": "_pokemonIndex",
          "type": "uint256"
        }
      ],
      "name": "mintPokemonNFT",
      "outputs": [],
      "stateMutability": "nonpayable",
      "type": "function"
    },
    {
      "inputs": [],
      "name": "multiverseGod",
      "outputs": [
        {
          "internalType": "string",
          "name": "name",
          "type": "string"
        },
        {
          "internalType": "string",
          "name": "imageURI",
          "type": "string"
        },
        {
          "internalType": "uint256",
          "name": "hp",
          "type": "uint256"
        },
        {
          "internalType": "uint256",
          "name": "maxHp",
          "type": "uint256"
        },
        {
          "internalType": "uint256",
          "name": "attackDamage",
          "type": "uint256"
        },
        {
          "internalType": "string",
          "name": "godType",
          "type": "string"
        }
      ],
      "stateMutability": "view",
      "type": "function"
    },
    {
      "inputs": [],
      "name": "name",
      "outputs": [
        {
          "internalType": "string",
          "name": "",
          "type": "string"
        }
      ],
      "stateMutability": "view",
      "type": "function"
    },
    {
      "inputs": [
        {
          "internalType": "uint256",
          "name": "",
          "type": "uint256"
        }
      ],
      "name": "nftHolderAttributes",
      "outputs": [
        {
          "internalType": "uint256",
          "name": "pokemonIndex",
          "type": "uint256"
        },
        {
          "internalType": "string",
          "name": "name",
          "type": "string"
        },
        {
          "internalType": "string",
          "name": "imageUri",
          "type": "string"
        },
        {
          "internalType": "string",
          "name": "pokemonType",
          "type": "string"
        },
        {
          "internalType": "uint256",
          "name": "hp",
          "type": "uint256"
        },
        {
          "internalType": "uint256",
          "name": "maxHp",
          "type": "uint256"
        },
        {
          "internalType": "uint256",
          "name": "attackDamage",
          "type": "uint256"
        }
      ],
      "stateMutability": "view",
      "type": "function"
    },
    {
      "inputs": [
        {
          "internalType": "address",
          "name": "",
          "type": "address"
        }
      ],
      "name": "nftHolders",
      "outputs": [
        {
          "internalType": "uint256",
          "name": "",
          "type": "uint256"
        }
      ],
      "stateMutability": "view",
      "type": "function"
    },
    {
      "inputs": [
        {
          "internalType": "uint256",
          "name": "tokenId",
          "type": "uint256"
        }
      ],
      "name": "ownerOf",
      "outputs": [
        {
          "internalType": "address",
          "name": "",
          "type": "address"
        }
      ],
      "stateMutability": "view",
      "type": "function"
    },
    {
      "inputs": [
        {
          "internalType": "address",
          "name": "from",
          "type": "address"
        },
        {
          "internalType": "address",
          "name": "to",
          "type": "address"
        },
        {
          "internalType": "uint256",
          "name": "tokenId",
          "type": "uint256"
        }
      ],
      "name": "safeTransferFrom",
      "outputs": [],
      "stateMutability": "nonpayable",
      "type": "function"
    },
    {
      "inputs": [
        {
          "internalType": "address",
          "name": "from",
          "type": "address"
        },
        {
          "internalType": "address",
          "name": "to",
          "type": "address"
        },
        {
          "internalType": "uint256",
          "name": "tokenId",
          "type": "uint256"
        },
        {
          "internalType": "bytes",
          "name": "_data",
          "type": "bytes"
        }
      ],
      "name": "safeTransferFrom",
      "outputs": [],
      "stateMutability": "nonpayable",
      "type": "function"
    },
    {
      "inputs": [
        {
          "internalType": "address",
          "name": "operator",
          "type": "address"
        },
        {
          "internalType": "bool",
          "name": "approved",
          "type": "bool"
        }
      ],
      "name": "setApprovalForAll",
      "outputs": [],
      "stateMutability": "nonpayable",
      "type": "function"
    },
    {
      "inputs": [
        {
          "internalType": "bytes4",
          "name": "interfaceId",
          "type": "bytes4"
        }
      ],
      "name": "supportsInterface",
      "outputs": [
        {
          "internalType": "bool",
          "name": "",
          "type": "bool"
        }
      ],
      "stateMutability": "view",
      "type": "function"
    },
    {
      "inputs": [],
      "name": "symbol",
      "outputs": [
        {
          "internalType": "string",
          "name": "",
          "type": "string"
        }
      ],
      "stateMutability": "view",
      "type": "function"
    },
    {
      "inputs": [
        {
          "internalType": "uint256",
          "name": "_tokenId",
          "type": "uint256"
        }
      ],
      "name": "tokenURI",
      "outputs": [
        {
          "internalType": "string",
          "name": "",
          "type": "string"
        }
      ],
      "stateMutability": "view",
      "type": "function"
    },
    {
      "inputs": [
        {
          "internalType": "address",
          "name": "from",
          "type": "address"
        },
        {
          "internalType": "address",
          "name": "to",
          "type": "address"
        },
        {
          "internalType": "uint256",
          "name": "tokenId",
          "type": "uint256"
        }
      ],
      "name": "transferFrom",
      "outputs": [],
      "stateMutability": "nonpayable",
      "type": "function"
    }
  ],
  "bytecode": "0x60806040523480156200001157600080fd5b506040516200603f3803806200603f833981810160405281019062000037919062000c11565b6040518060600160405280602a815260200162005feb602a91396040518060400160405280601481526020017f4d756c74697665727365204c6567656e6461727900000000000000000000000081525081600090805190602001906200009f929190620009a4565b508060019080519060200190620000b8929190620009a4565b5050506040518060c00160405280868152602001858152602001848152602001848152602001838152602001828152506009600082015181600001908051906020019062000108929190620009a4565b50602082015181600101908051906020019062000127929190620009a4565b5060408201518160020155606082015181600301556080820151816004015560a082015181600501908051906020019062000164929190620009a4565b50905050620002c96040518060600160405280602a815260200162006015602a913960096000018054620001989062001064565b80601f0160208091040260200160405190810160405280929190818152602001828054620001c69062001064565b8015620002175780601f10620001eb5761010080835404028352916020019162000217565b820191906000526020600020905b815481529060010190602001808311620001f957829003601f168201915b505050505060096002015460096001018054620002349062001064565b80601f0160208091040260200160405190810160405280929190818152602001828054620002629062001064565b8015620002b35780601f106200028757610100808354040283529160200191620002b3565b820191906000526020600020905b8154815290600101906020018083116200029557829003601f168201915b50505050506200080d60201b620020671760201c565b60005b8a51811015620007e55760076040518060e001604052808381526020018d848151811062000323577f4e487b7100000000000000000000000000000000000000000000000000000000600052603260045260246000fd5b602002602001015181526020018c84815181106200036a577f4e487b7100000000000000000000000000000000000000000000000000000000600052603260045260246000fd5b60200260200101518152602001898481518110620003b1577f4e487b7100000000000000000000000000000000000000000000000000000000600052603260045260246000fd5b602002602001015181526020018b8481518110620003f8577f4e487b7100000000000000000000000000000000000000000000000000000000600052603260045260246000fd5b602002602001015181526020018b84815181106200043f577f4e487b7100000000000000000000000000000000000000000000000000000000600052603260045260246000fd5b602002602001015181526020018a848151811062000486577f4e487b7100000000000000000000000000000000000000000000000000000000600052603260045260246000fd5b60200260200101518152509080600181540180825580915050600190039060005260206000209060070201600090919091909150600082015181600001556020820151816001019080519060200190620004e2929190620009a4565b50604082015181600201908051906020019062000501929190620009a4565b50606082015181600301908051906020019062000520929190620009a4565b506080820151816004015560a0820151816005015560c0820151816006015550506000600782815481106200057e577f4e487b7100000000000000000000000000000000000000000000000000000000600052603260045260246000fd5b90600052602060002090600702016040518060e001604052908160008201548152602001600182018054620005b39062001064565b80601f0160208091040260200160405190810160405280929190818152602001828054620005e19062001064565b8015620006325780601f10620006065761010080835404028352916020019162000632565b820191906000526020600020905b8154815290600101906020018083116200061457829003601f168201915b505050505081526020016002820180546200064d9062001064565b80601f01602080910402602001604051908101604052809291908181526020018280546200067b9062001064565b8015620006cc5780601f10620006a057610100808354040283529160200191620006cc565b820191906000526020600020905b815481529060010190602001808311620006ae57829003601f168201915b50505050508152602001600382018054620006e79062001064565b80601f0160208091040260200160405190810160405280929190818152602001828054620007159062001064565b8015620007665780601f106200073a5761010080835404028352916020019162000766565b820191906000526020600020905b8154815290600101906020018083116200074857829003601f168201915b5050505050815260200160048201548152602001600582015481526020016006820154815250509050620007cd60405180606001604052806029815260200162005fc260299139826020015183606001518460400151620008b960201b620021091760201c565b50600181620007dd919062000fc7565b9050620002cc565b50620007fd60066200096560201b620021ab1760201c565b5050505050505050505062001152565b620008b3848484846040516024016200082a949392919062000e84565b6040516020818303038152906040527f8d142cdd000000000000000000000000000000000000000000000000000000007bffffffffffffffffffffffffffffffffffffffffffffffffffffffff19166020820180517bffffffffffffffffffffffffffffffffffffffffffffffffffffffff83818316178352505050506200097b60201b60201c565b50505050565b6200095f84848484604051602401620008d6949392919062000e1b565b6040516020818303038152906040527fde68f20a000000000000000000000000000000000000000000000000000000007bffffffffffffffffffffffffffffffffffffffffffffffffffffffff19166020820180517bffffffffffffffffffffffffffffffffffffffffffffffffffffffff83818316178352505050506200097b60201b60201c565b50505050565b6001816000016000828254019250508190555050565b60008151905060006a636f6e736f6c652e6c6f679050602083016000808483855afa5050505050565b828054620009b29062001064565b90600052602060002090601f016020900481019282620009d6576000855562000a22565b82601f10620009f157805160ff191683800117855562000a22565b8280016001018555821562000a22579182015b8281111562000a2157825182559160200191906001019062000a04565b5b50905062000a31919062000a35565b5090565b5b8082111562000a5057600081600090555060010162000a36565b5090565b600062000a6b62000a658462000f1a565b62000ee6565b9050808382526020820190508260005b8581101562000aaf578151850162000a94888262000bcd565b84526020840193506020830192505060018101905062000a7b565b5050509392505050565b600062000ad062000aca8462000f49565b62000ee6565b9050808382526020820190508285602086028201111562000af057600080fd5b60005b8581101562000b24578162000b09888262000bfa565b84526020840193506020830192505060018101905062000af3565b5050509392505050565b600062000b4562000b3f8462000f78565b62000ee6565b90508281526020810184848401111562000b5e57600080fd5b62000b6b8482856200102e565b509392505050565b600082601f83011262000b8557600080fd5b815162000b9784826020860162000a54565b91505092915050565b600082601f83011262000bb257600080fd5b815162000bc484826020860162000ab9565b91505092915050565b600082601f83011262000bdf57600080fd5b815162000bf184826020860162000b2e565b91505092915050565b60008151905062000c0b8162001138565b92915050565b6000806000806000806000806000806101408b8d03121562000c3257600080fd5b60008b015167ffffffffffffffff81111562000c4d57600080fd5b62000c5b8d828e0162000b73565b9a505060208b015167ffffffffffffffff81111562000c7957600080fd5b62000c878d828e0162000b73565b99505060408b015167ffffffffffffffff81111562000ca557600080fd5b62000cb38d828e0162000ba0565b98505060608b015167ffffffffffffffff81111562000cd157600080fd5b62000cdf8d828e0162000ba0565b97505060808b015167ffffffffffffffff81111562000cfd57600080fd5b62000d0b8d828e0162000b73565b96505060a08b015167ffffffffffffffff81111562000d2957600080fd5b62000d378d828e0162000bcd565b95505060c08b015167ffffffffffffffff81111562000d5557600080fd5b62000d638d828e0162000bcd565b94505060e062000d768d828e0162000bfa565b93505061010062000d8a8d828e0162000bfa565b9250506101208b015167ffffffffffffffff81111562000da957600080fd5b62000db78d828e0162000bcd565b9150509295989b9194979a5092959850565b600062000dd68262000fab565b62000de2818562000fb6565b935062000df48185602086016200102e565b62000dff8162001127565b840191505092915050565b62000e158162001024565b82525050565b6000608082019050818103600083015262000e37818762000dc9565b9050818103602083015262000e4d818662000dc9565b9050818103604083015262000e63818562000dc9565b9050818103606083015262000e79818462000dc9565b905095945050505050565b6000608082019050818103600083015262000ea0818762000dc9565b9050818103602083015262000eb6818662000dc9565b905062000ec7604083018562000e0a565b818103606083015262000edb818462000dc9565b905095945050505050565b6000604051905081810181811067ffffffffffffffff8211171562000f105762000f0f620010f8565b5b8060405250919050565b600067ffffffffffffffff82111562000f385762000f37620010f8565b5b602082029050602081019050919050565b600067ffffffffffffffff82111562000f675762000f66620010f8565b5b602082029050602081019050919050565b600067ffffffffffffffff82111562000f965762000f95620010f8565b5b601f19601f8301169050602081019050919050565b600081519050919050565b600082825260208201905092915050565b600062000fd48262001024565b915062000fe18362001024565b9250827fffffffffffffffffffffffffffffffffffffffffffffffffffffffffffffffff038211156200101957620010186200109a565b5b828201905092915050565b6000819050919050565b60005b838110156200104e57808201518184015260208101905062001031565b838111156200105e576000848401525b50505050565b600060028204905060018216806200107d57607f821691505b60208210811415620010945762001093620010c9565b5b50919050565b7f4e487b7100000000000000000000000000000000000000000000000000000000600052601160045260246000fd5b7f4e487b7100000000000000000000000000000000000000000000000000000000600052602260045260246000fd5b7f4e487b7100000000000000000000000000000000000000000000000000000000600052604160045260246000fd5b6000601f19601f8301169050919050565b620011438162001024565b81146200114f57600080fd5b50565b614e6080620011626000396000f3fe608060405234801561001057600080fd5b50600436106101375760003560e01c80637df124a1116100b8578063b88d4fde1161007c578063b88d4fde1461036b578063c034ec6214610387578063c87b56dd146103a5578063c8cf27f4146103d5578063e985e9c5146103f3578063ff8fdd2f1461042357610137565b80637df124a1146102a857806395d89b41146102d857806398da4c95146102f6578063a22cb4651461032c578063b12ebaec1461034857610137565b8063343023af116100ff578063343023af146101f257806342842e0e1461020e5780636352211e1461022a5780636432d0441461025a57806370a082311461027857610137565b806301ffc9a71461013c57806306fdde031461016c578063081812fc1461018a578063095ea7b3146101ba57806323b872dd146101d6575b600080fd5b6101566004803603810190610151919061355e565b61042d565b604051610163919061438a565b60405180910390f35b61017461050f565b60405161018191906143a5565b60405180910390f35b6101a4600480360381019061019f91906135b0565b6105a1565b6040516101b191906142ca565b60405180910390f35b6101d460048036038101906101cf9190613522565b610626565b005b6101f060048036038101906101eb919061341c565b61073e565b005b61020c600480360381019061020791906135b0565b61079e565b005b6102286004803603810190610223919061341c565b610c88565b005b610244600480360381019061023f91906135b0565b610ca8565b60405161025191906142ca565b60405180910390f35b610262610d5a565b60405161026f9190614368565b60405180910390f35b610292600480360381019061028d91906133b7565b610f97565b60405161029f91906147dd565b60405180910390f35b6102c260048036038101906102bd91906133b7565b61104f565b6040516102cf91906147dd565b60405180910390f35b6102e0611067565b6040516102ed91906143a5565b60405180910390f35b610310600480360381019061030b91906135b0565b6110f9565b60405161032397969594939291906147f8565b60405180910390f35b610346600480360381019061034191906134e6565b6112d3565b005b6103506112e9565b604051610362969594939291906144d5565b60405180910390f35b6103856004803603810190610380919061346b565b6114ab565b005b61038f61150d565b60405161039c9190614799565b60405180910390f35b6103bf60048036038101906103ba91906135b0565b6116fb565b6040516103cc91906143a5565b60405180910390f35b6103dd6119ae565b6040516103ea91906147bb565b60405180910390f35b61040d600480360381019061040891906133e0565b611c18565b60405161041a919061438a565b60405180910390f35b61042b611cac565b005b60007f80ac58cd000000000000000000000000000000000000000000000000000000007bffffffffffffffffffffffffffffffffffffffffffffffffffffffff1916827bffffffffffffffffffffffffffffffffffffffffffffffffffffffff191614806104f857507f5b5e139f000000000000000000000000000000000000000000000000000000007bffffffffffffffffffffffffffffffffffffffffffffffffffffffff1916827bffffffffffffffffffffffffffffffffffffffffffffffffffffffff1916145b806105085750610507826121c1565b5b9050919050565b60606000805461051e90614b5e565b80601f016020809104026020016040519081016040528092919081815260200182805461054a90614b5e565b80156105975780601f1061056c57610100808354040283529160200191610597565b820191906000526020600020905b81548152906001019060200180831161057a57829003601f168201915b5050505050905090565b60006105ac8261222b565b6105eb576040517f08c379a00000000000000000000000000000000000000000000000000000000081526004016105e2906146f9565b60405180910390fd5b6004600083815260200190815260200160002060009054906101000a900473ffffffffffffffffffffffffffffffffffffffff169050919050565b600061063182610ca8565b90508073ffffffffffffffffffffffffffffffffffffffff168373ffffffffffffffffffffffffffffffffffffffff1614156106a2576040517f08c379a000000000000000000000000000000000000000000000000000000000815260040161069990614759565b60405180910390fd5b8073ffffffffffffffffffffffffffffffffffffffff166106c1612297565b73ffffffffffffffffffffffffffffffffffffffff1614806106f057506106ef816106ea612297565b611c18565b5b61072f576040517f08c379a000000000000000000000000000000000000000000000000000000000815260040161072690614679565b60405180910390fd5b610739838361229f565b505050565b61074f610749612297565b82612358565b61078e576040517f08c379a000000000000000000000000000000000000000000000000000000000815260040161078590614779565b60405180910390fd5b610799838383612436565b505050565b60006107aa6006612692565b90506107b633826126a0565b6040518060e0016040528083815260200160078481548110610801577f4e487b7100000000000000000000000000000000000000000000000000000000600052603260045260246000fd5b9060005260206000209060070201600101805461081d90614b5e565b80601f016020809104026020016040519081016040528092919081815260200182805461084990614b5e565b80156108965780601f1061086b57610100808354040283529160200191610896565b820191906000526020600020905b81548152906001019060200180831161087957829003601f168201915b50505050508152602001600784815481106108da577f4e487b7100000000000000000000000000000000000000000000000000000000600052603260045260246000fd5b906000526020600020906007020160020180546108f690614b5e565b80601f016020809104026020016040519081016040528092919081815260200182805461092290614b5e565b801561096f5780601f106109445761010080835404028352916020019161096f565b820191906000526020600020905b81548152906001019060200180831161095257829003601f168201915b50505050508152602001600784815481106109b3577f4e487b7100000000000000000000000000000000000000000000000000000000600052603260045260246000fd5b906000526020600020906007020160030180546109cf90614b5e565b80601f01602080910402602001604051908101604052809291908181526020018280546109fb90614b5e565b8015610a485780601f10610a1d57610100808354040283529160200191610a48565b820191906000526020600020905b815481529060010190602001808311610a2b57829003601f168201915b5050505050815260200160078481548110610a8c577f4e487b7100000000000000000000000000000000000000000000000000000000600052603260045260246000fd5b906000526020600020906007020160040154815260200160078481548110610add577f4e487b7100000000000000000000000000000000000000000000000000000000600052603260045260246000fd5b906000526020600020906007020160050154815260200160078481548110610b2e577f4e487b7100000000000000000000000000000000000000000000000000000000600052603260045260246000fd5b90600052602060002090600702016006015481525060086000838152602001908152602001600020600082015181600001556020820151816001019080519060200190610b7c9291906131d0565b506040820151816002019080519060200190610b999291906131d0565b506060820151816003019080519060200190610bb69291906131d0565b506080820151816004015560a0820151816005015560c08201518160060155905050610bfb6040518060600160405280602e8152602001614dc1602e913982846126be565b80600f60003373ffffffffffffffffffffffffffffffffffffffff1673ffffffffffffffffffffffffffffffffffffffff16815260200190815260200160002081905550610c4960066121ab565b7f60e1f0c62ae107984ff8409b83c23d1025c9e003037cf8d4fb479c49645b3140338284604051610c7c93929190614331565b60405180910390a15050565b610ca3838383604051806020016040528060008152506114ab565b505050565b6000806002600084815260200190815260200160002060009054906101000a900473ffffffffffffffffffffffffffffffffffffffff169050600073ffffffffffffffffffffffffffffffffffffffff168173ffffffffffffffffffffffffffffffffffffffff161415610d51576040517f08c379a0000000000000000000000000000000000000000000000000000000008152600401610d48906146b9565b60405180910390fd5b80915050919050565b60606007805480602002602001604051908101604052809291908181526020016000905b82821015610f8e57838290600052602060002090600702016040518060e001604052908160008201548152602001600182018054610dbb90614b5e565b80601f0160208091040260200160405190810160405280929190818152602001828054610de790614b5e565b8015610e345780601f10610e0957610100808354040283529160200191610e34565b820191906000526020600020905b815481529060010190602001808311610e1757829003601f168201915b50505050508152602001600282018054610e4d90614b5e565b80601f0160208091040260200160405190810160405280929190818152602001828054610e7990614b5e565b8015610ec65780601f10610e9b57610100808354040283529160200191610ec6565b820191906000526020600020905b815481529060010190602001808311610ea957829003601f168201915b50505050508152602001600382018054610edf90614b5e565b80601f0160208091040260200160405190810160405280929190818152602001828054610f0b90614b5e565b8015610f585780601f10610f2d57610100808354040283529160200191610f58565b820191906000526020600020905b815481529060010190602001808311610f3b57829003601f168201915b50505050508152602001600482015481526020016005820154815260200160068201548152505081526020019060010190610d7e565b50505050905090565b60008073ffffffffffffffffffffffffffffffffffffffff168273ffffffffffffffffffffffffffffffffffffffff161415611008576040517f08c379a0000000000000000000000000000000000000000000000000000000008152600401610fff90614699565b60405180910390fd5b600360008373ffffffffffffffffffffffffffffffffffffffff1673ffffffffffffffffffffffffffffffffffffffff168152602001908152602001600020549050919050565b600f6020528060005260406000206000915090505481565b60606001805461107690614b5e565b80601f01602080910402602001604051908101604052809291908181526020018280546110a290614b5e565b80156110ef5780601f106110c4576101008083540402835291602001916110ef565b820191906000526020600020905b8154815290600101906020018083116110d257829003601f168201915b5050505050905090565b600860205280600052604060002060009150905080600001549080600101805461112290614b5e565b80601f016020809104026020016040519081016040528092919081815260200182805461114e90614b5e565b801561119b5780601f106111705761010080835404028352916020019161119b565b820191906000526020600020905b81548152906001019060200180831161117e57829003601f168201915b5050505050908060020180546111b090614b5e565b80601f01602080910402602001604051908101604052809291908181526020018280546111dc90614b5e565b80156112295780601f106111fe57610100808354040283529160200191611229565b820191906000526020600020905b81548152906001019060200180831161120c57829003601f168201915b50505050509080600301805461123e90614b5e565b80601f016020809104026020016040519081016040528092919081815260200182805461126a90614b5e565b80156112b75780601f1061128c576101008083540402835291602001916112b7565b820191906000526020600020905b81548152906001019060200180831161129a57829003601f168201915b5050505050908060040154908060050154908060060154905087565b6112e56112de612297565b838361275d565b5050565b60098060000180546112fa90614b5e565b80601f016020809104026020016040519081016040528092919081815260200182805461132690614b5e565b80156113735780601f1061134857610100808354040283529160200191611373565b820191906000526020600020905b81548152906001019060200180831161135657829003601f168201915b50505050509080600101805461138890614b5e565b80601f01602080910402602001604051908101604052809291908181526020018280546113b490614b5e565b80156114015780601f106113d657610100808354040283529160200191611401565b820191906000526020600020905b8154815290600101906020018083116113e457829003601f168201915b50505050509080600201549080600301549080600401549080600501805461142890614b5e565b80601f016020809104026020016040519081016040528092919081815260200182805461145490614b5e565b80156114a15780601f10611476576101008083540402835291602001916114a1565b820191906000526020600020905b81548152906001019060200180831161148457829003601f168201915b5050505050905086565b6114bc6114b6612297565b83612358565b6114fb576040517f08c379a00000000000000000000000000000000000000000000000000000000081526004016114f290614779565b60405180910390fd5b611507848484846128ca565b50505050565b611515613256565b60096040518060c001604052908160008201805461153290614b5e565b80601f016020809104026020016040519081016040528092919081815260200182805461155e90614b5e565b80156115ab5780601f10611580576101008083540402835291602001916115ab565b820191906000526020600020905b81548152906001019060200180831161158e57829003601f168201915b505050505081526020016001820180546115c490614b5e565b80601f01602080910402602001604051908101604052809291908181526020018280546115f090614b5e565b801561163d5780601f106116125761010080835404028352916020019161163d565b820191906000526020600020905b81548152906001019060200180831161162057829003601f168201915b5050505050815260200160028201548152602001600382015481526020016004820154815260200160058201805461167490614b5e565b80601f01602080910402602001604051908101604052809291908181526020018280546116a090614b5e565b80156116ed5780601f106116c2576101008083540402835291602001916116ed565b820191906000526020600020905b8154815290600101906020018083116116d057829003601f168201915b505050505081525050905090565b60606000600860008481526020019081526020016000206040518060e00160405290816000820154815260200160018201805461173790614b5e565b80601f016020809104026020016040519081016040528092919081815260200182805461176390614b5e565b80156117b05780601f10611785576101008083540402835291602001916117b0565b820191906000526020600020905b81548152906001019060200180831161179357829003601f168201915b505050505081526020016002820180546117c990614b5e565b80601f01602080910402602001604051908101604052809291908181526020018280546117f590614b5e565b80156118425780601f1061181757610100808354040283529160200191611842565b820191906000526020600020905b81548152906001019060200180831161182557829003601f168201915b5050505050815260200160038201805461185b90614b5e565b80601f016020809104026020016040519081016040528092919081815260200182805461188790614b5e565b80156118d45780601f106118a9576101008083540402835291602001916118d4565b820191906000526020600020905b8154815290600101906020018083116118b757829003601f168201915b5050505050815260200160048201548152602001600582015481526020016006820154815250509050600061190c8260800151612926565b9050600061191d8360a00151612926565b9050600061192e8460c00151612926565b9050600061197a856020015161194389612926565b8760400151886060015188888860405160200161196697969594939291906141eb565b604051602081830303815290604052612ad3565b905060008160405160200161198f91906142a8565b6040516020818303038152906040529050809650505050505050919050565b6119b661328c565b6000600f60003373ffffffffffffffffffffffffffffffffffffffff1673ffffffffffffffffffffffffffffffffffffffff1681526020019081526020016000205490506000811115611c0757600860008281526020019081526020016000206040518060e001604052908160008201548152602001600182018054611a3b90614b5e565b80601f0160208091040260200160405190810160405280929190818152602001828054611a6790614b5e565b8015611ab45780601f10611a8957610100808354040283529160200191611ab4565b820191906000526020600020905b815481529060010190602001808311611a9757829003601f168201915b50505050508152602001600282018054611acd90614b5e565b80601f0160208091040260200160405190810160405280929190818152602001828054611af990614b5e565b8015611b465780601f10611b1b57610100808354040283529160200191611b46565b820191906000526020600020905b815481529060010190602001808311611b2957829003601f168201915b50505050508152602001600382018054611b5f90614b5e565b80601f0160208091040260200160405190810160405280929190818152602001828054611b8b90614b5e565b8015611bd85780601f10611bad57610100808354040283529160200191611bd8565b820191906000526020600020905b815481529060010190602001808311611bbb57829003601f168201915b505050505081526020016004820154815260200160058201548152602001600682015481525050915050611c15565b611c0f61328c565b80925050505b90565b6000600560008473ffffffffffffffffffffffffffffffffffffffff1673ffffffffffffffffffffffffffffffffffffffff16815260200190815260200160002060008373ffffffffffffffffffffffffffffffffffffffff1673ffffffffffffffffffffffffffffffffffffffff16815260200190815260200160002060009054906101000a900460ff16905092915050565b6000600f60003373ffffffffffffffffffffffffffffffffffffffff1673ffffffffffffffffffffffffffffffffffffffff1681526020019081526020016000205490506000600860008381526020019081526020016000209050611dbf6040518060600160405280603c8152602001614def603c9139826001018054611d3290614b5e565b80601f0160208091040260200160405190810160405280929190818152602001828054611d5e90614b5e565b8015611dab5780601f10611d8057610100808354040283529160200191611dab565b820191906000526020600020905b815481529060010190602001808311611d8e57829003601f168201915b505050505083600401548460060154612c91565b611e976040518060400160405280601b81526020017f426f73732025732068617320257320485020616e64202573204144000000000081525060096000018054611e0890614b5e565b80601f0160208091040260200160405190810160405280929190818152602001828054611e3490614b5e565b8015611e815780601f10611e5657610100808354040283529160200191611e81565b820191906000526020600020905b815481529060010190602001808311611e6457829003601f168201915b5050505050600960020154600960040154612c91565b6000816004015411611ede576040517f08c379a0000000000000000000000000000000000000000000000000000000008152600401611ed590614739565b60405180910390fd5b600060096002015411611f26576040517f08c379a0000000000000000000000000000000000000000000000000000000008152600401611f1d906145d9565b60405180910390fd5b600a8160060154611f3791906149e9565b6009600201541015611f53576000600960020181905550611f7e565b600a8160060154611f6491906149e9565b600960020154611f749190614a74565b6009600201819055505b600a600960040154611f9091906149e9565b81600401541015611faa5760008160040181905550611fd4565b600a600960040154611fbc91906149e9565b8160040154611fcb9190614a74565b81600401819055505b611ffb604051806060016040528060258152602001614d3460259139600960020154612d33565b612021604051806060016040528060288152602001614d99602891398260040154612d33565b7f838ab28464562786a6c4ab2311964b82fa60bd9b14aa7e856af1f3f18d41a414600960020154826004015460405161205b92919061487c565b60405180910390a15050565b612103848484846040516024016120819493929190614428565b6040516020818303038152906040527f8d142cdd000000000000000000000000000000000000000000000000000000007bffffffffffffffffffffffffffffffffffffffffffffffffffffffff19166020820180517bffffffffffffffffffffffffffffffffffffffffffffffffffffffff8381831617835250505050612dcf565b50505050565b6121a58484848460405160240161212394939291906143c7565b6040516020818303038152906040527fde68f20a000000000000000000000000000000000000000000000000000000007bffffffffffffffffffffffffffffffffffffffffffffffffffffffff19166020820180517bffffffffffffffffffffffffffffffffffffffffffffffffffffffff8381831617835250505050612dcf565b50505050565b6001816000016000828254019250508190555050565b60007f01ffc9a7000000000000000000000000000000000000000000000000000000007bffffffffffffffffffffffffffffffffffffffffffffffffffffffff1916827bffffffffffffffffffffffffffffffffffffffffffffffffffffffff1916149050919050565b60008073ffffffffffffffffffffffffffffffffffffffff166002600084815260200190815260200160002060009054906101000a900473ffffffffffffffffffffffffffffffffffffffff1673ffffffffffffffffffffffffffffffffffffffff1614159050919050565b600033905090565b816004600083815260200190815260200160002060006101000a81548173ffffffffffffffffffffffffffffffffffffffff021916908373ffffffffffffffffffffffffffffffffffffffff160217905550808273ffffffffffffffffffffffffffffffffffffffff1661231283610ca8565b73ffffffffffffffffffffffffffffffffffffffff167f8c5be1e5ebec7d5bd14f71427d1e84f3dd0314c0f7b2291e5b200ac8c7c3b92560405160405180910390a45050565b60006123638261222b565b6123a2576040517f08c379a000000000000000000000000000000000000000000000000000000000815260040161239990614659565b60405180910390fd5b60006123ad83610ca8565b90508073ffffffffffffffffffffffffffffffffffffffff168473ffffffffffffffffffffffffffffffffffffffff16148061241c57508373ffffffffffffffffffffffffffffffffffffffff16612404846105a1565b73ffffffffffffffffffffffffffffffffffffffff16145b8061242d575061242c8185611c18565b5b91505092915050565b8273ffffffffffffffffffffffffffffffffffffffff1661245682610ca8565b73ffffffffffffffffffffffffffffffffffffffff16146124ac576040517f08c379a00000000000000000000000000000000000000000000000000000000081526004016124a390614719565b60405180910390fd5b600073ffffffffffffffffffffffffffffffffffffffff168273ffffffffffffffffffffffffffffffffffffffff16141561251c576040517f08c379a000000000000000000000000000000000000000000000000000000000815260040161251390614619565b60405180910390fd5b612527838383612df8565b61253260008261229f565b6001600360008573ffffffffffffffffffffffffffffffffffffffff1673ffffffffffffffffffffffffffffffffffffffff16815260200190815260200160002060008282546125829190614a74565b925050819055506001600360008473ffffffffffffffffffffffffffffffffffffffff1673ffffffffffffffffffffffffffffffffffffffff16815260200190815260200160002060008282546125d99190614993565b92505081905550816002600083815260200190815260200160002060006101000a81548173ffffffffffffffffffffffffffffffffffffffff021916908373ffffffffffffffffffffffffffffffffffffffff160217905550808273ffffffffffffffffffffffffffffffffffffffff168473ffffffffffffffffffffffffffffffffffffffff167fddf252ad1be2c89b69c2b068fc378daa952ba7f163c4a11628f55a4df523b3ef60405160405180910390a4505050565b600081600001549050919050565b6126ba828260405180602001604052806000815250612dfd565b5050565b6127588383836040516024016126d69392919061457b565b6040516020818303038152906040527f969cdd03000000000000000000000000000000000000000000000000000000007bffffffffffffffffffffffffffffffffffffffffffffffffffffffff19166020820180517bffffffffffffffffffffffffffffffffffffffffffffffffffffffff8381831617835250505050612dcf565b505050565b8173ffffffffffffffffffffffffffffffffffffffff168373ffffffffffffffffffffffffffffffffffffffff1614156127cc576040517f08c379a00000000000000000000000000000000000000000000000000000000081526004016127c390614639565b60405180910390fd5b80600560008573ffffffffffffffffffffffffffffffffffffffff1673ffffffffffffffffffffffffffffffffffffffff16815260200190815260200160002060008473ffffffffffffffffffffffffffffffffffffffff1673ffffffffffffffffffffffffffffffffffffffff16815260200190815260200160002060006101000a81548160ff0219169083151502179055508173ffffffffffffffffffffffffffffffffffffffff168373ffffffffffffffffffffffffffffffffffffffff167f17307eab39ab6107e8899845ad3d59bd9653f200f220920489ca2b5937696c31836040516128bd919061438a565b60405180910390a3505050565b6128d5848484612436565b6128e184848484612e58565b612920576040517f08c379a0000000000000000000000000000000000000000000000000000000008152600401612917906145b9565b60405180910390fd5b50505050565b6060600082141561296e576040518060400160405280600181526020017f30000000000000000000000000000000000000000000000000000000000000008152509050612ace565b600082905060005b600082146129a057808061298990614b90565b915050600a8261299991906149e9565b9150612976565b60008167ffffffffffffffff8111156129e2577f4e487b7100000000000000000000000000000000000000000000000000000000600052604160045260246000fd5b6040519080825280601f01601f191660200182016040528015612a145781602001600182028036833780820191505090505b5090505b60008514612ac757600182612a2d9190614a74565b9150600a85612a3c9190614bd9565b6030612a489190614993565b60f81b818381518110612a84577f4e487b7100000000000000000000000000000000000000000000000000000000600052603260045260246000fd5b60200101907effffffffffffffffffffffffffffffffffffffffffffffffffffffffffffff1916908160001a905350600a85612ac091906149e9565b9450612a18565b8093505050505b919050565b60606000825190506000811415612afc5760405180602001604052806000815250915050612c8c565b60006003600283612b0d9190614993565b612b1791906149e9565b6004612b239190614a1a565b90506000602082612b349190614993565b67ffffffffffffffff811115612b73577f4e487b7100000000000000000000000000000000000000000000000000000000600052604160045260246000fd5b6040519080825280601f01601f191660200182016040528015612ba55781602001600182028036833780820191505090505b5090506000604051806060016040528060408152602001614d59604091399050600181016020830160005b86811015612c495760038101905062ffffff818a015116603f8160121c168401518060081b905060ff603f83600c1c1686015116810190508060081b905060ff603f8360061c1686015116810190508060081b905060ff603f831686015116810190508060e01b90508084526004840193505050612bd0565b506003860660018114612c635760028114612c7357612c7e565b613d3d60f01b6002830352612c7e565b603d60f81b60018303525b508484525050819450505050505b919050565b612d2d84848484604051602401612cab9493929190614482565b6040516020818303038152906040527fd5cf17d0000000000000000000000000000000000000000000000000000000007bffffffffffffffffffffffffffffffffffffffffffffffffffffffff19166020820180517bffffffffffffffffffffffffffffffffffffffffffffffffffffffff8381831617835250505050612dcf565b50505050565b612dcb8282604051602401612d4992919061454b565b6040516020818303038152906040527f9710a9d0000000000000000000000000000000000000000000000000000000007bffffffffffffffffffffffffffffffffffffffffffffffffffffffff19166020820180517bffffffffffffffffffffffffffffffffffffffffffffffffffffffff8381831617835250505050612dcf565b5050565b60008151905060006a636f6e736f6c652e6c6f679050602083016000808483855afa5050505050565b505050565b612e078383612fef565b612e146000848484612e58565b612e53576040517f08c379a0000000000000000000000000000000000000000000000000000000008152600401612e4a906145b9565b60405180910390fd5b505050565b6000612e798473ffffffffffffffffffffffffffffffffffffffff166131bd565b15612fe2578373ffffffffffffffffffffffffffffffffffffffff1663150b7a02612ea2612297565b8786866040518563ffffffff1660e01b8152600401612ec494939291906142e5565b602060405180830381600087803b158015612ede57600080fd5b505af1925050508015612f0f57506040513d601f19601f82011682018060405250810190612f0c9190613587565b60015b612f92573d8060008114612f3f576040519150601f19603f3d011682016040523d82523d6000602084013e612f44565b606091505b50600081511415612f8a576040517f08c379a0000000000000000000000000000000000000000000000000000000008152600401612f81906145b9565b60405180910390fd5b805181602001fd5b63150b7a0260e01b7bffffffffffffffffffffffffffffffffffffffffffffffffffffffff1916817bffffffffffffffffffffffffffffffffffffffffffffffffffffffff191614915050612fe7565b600190505b949350505050565b600073ffffffffffffffffffffffffffffffffffffffff168273ffffffffffffffffffffffffffffffffffffffff16141561305f576040517f08c379a0000000000000000000000000000000000000000000000000000000008152600401613056906146d9565b60405180910390fd5b6130688161222b565b156130a8576040517f08c379a000000000000000000000000000000000000000000000000000000000815260040161309f906145f9565b60405180910390fd5b6130b460008383612df8565b6001600360008473ffffffffffffffffffffffffffffffffffffffff1673ffffffffffffffffffffffffffffffffffffffff16815260200190815260200160002060008282546131049190614993565b92505081905550816002600083815260200190815260200160002060006101000a81548173ffffffffffffffffffffffffffffffffffffffff021916908373ffffffffffffffffffffffffffffffffffffffff160217905550808273ffffffffffffffffffffffffffffffffffffffff16600073ffffffffffffffffffffffffffffffffffffffff167fddf252ad1be2c89b69c2b068fc378daa952ba7f163c4a11628f55a4df523b3ef60405160405180910390a45050565b600080823b905060008111915050919050565b8280546131dc90614b5e565b90600052602060002090601f0160209004810192826131fe5760008555613245565b82601f1061321757805160ff1916838001178555613245565b82800160010185558215613245579182015b82811115613244578251825591602001919060010190613229565b5b50905061325291906132c9565b5090565b6040518060c001604052806060815260200160608152602001600081526020016000815260200160008152602001606081525090565b6040518060e00160405280600081526020016060815260200160608152602001606081526020016000815260200160008152602001600081525090565b5b808211156132e25760008160009055506001016132ca565b5090565b60006132f96132f4846148d6565b6148a5565b90508281526020810184848401111561331157600080fd5b61331c848285614b1c565b509392505050565b60008135905061333381614cd7565b92915050565b60008135905061334881614cee565b92915050565b60008135905061335d81614d05565b92915050565b60008151905061337281614d05565b92915050565b600082601f83011261338957600080fd5b81356133998482602086016132e6565b91505092915050565b6000813590506133b181614d1c565b92915050565b6000602082840312156133c957600080fd5b60006133d784828501613324565b91505092915050565b600080604083850312156133f357600080fd5b600061340185828601613324565b925050602061341285828601613324565b9150509250929050565b60008060006060848603121561343157600080fd5b600061343f86828701613324565b935050602061345086828701613324565b9250506040613461868287016133a2565b9150509250925092565b6000806000806080858703121561348157600080fd5b600061348f87828801613324565b94505060206134a087828801613324565b93505060406134b1878288016133a2565b925050606085013567ffffffffffffffff8111156134ce57600080fd5b6134da87828801613378565b91505092959194509250565b600080604083850312156134f957600080fd5b600061350785828601613324565b925050602061351885828601613339565b9150509250929050565b6000806040838503121561353557600080fd5b600061354385828601613324565b9250506020613554858286016133a2565b9150509250929050565b60006020828403121561357057600080fd5b600061357e8482850161334e565b91505092915050565b60006020828403121561359957600080fd5b60006135a784828501613363565b91505092915050565b6000602082840312156135c257600080fd5b60006135d0848285016133a2565b91505092915050565b60006135e58383614079565b905092915050565b6135f681614aa8565b82525050565b600061360782614916565b6136118185614944565b93508360208202850161362385614906565b8060005b8581101561365f578484038952815161364085826135d9565b945061364b83614937565b925060208a01995050600181019050613627565b50829750879550505050505092915050565b61367a81614aba565b82525050565b600061368b82614921565b6136958185614955565b93506136a5818560208601614b2b565b6136ae81614cc6565b840191505092915050565b60006136c48261492c565b6136ce8185614966565b93506136de818560208601614b2b565b6136e781614cc6565b840191505092915050565b60006136fd8261492c565b6137078185614977565b9350613717818560208601614b2b565b61372081614cc6565b840191505092915050565b60006137368261492c565b6137408185614988565b9350613750818560208601614b2b565b80840191505092915050565b6000613769600b83614988565b91507f202d2d204e465420233a200000000000000000000000000000000000000000006000830152600b82019050919050565b60006137a9603283614977565b91507f4552433732313a207472616e7366657220746f206e6f6e20455243373231526560008301527f63656976657220696d706c656d656e74657200000000000000000000000000006020830152604082019050919050565b600061380f602d83614977565b91507f4572726f723a2043726561746f72206d757374206861766520485020746f206160008301527f747461636b20506c617965722e000000000000000000000000000000000000006020830152604082019050919050565b6000613875601c83614977565b91507f4552433732313a20746f6b656e20616c7265616479206d696e746564000000006000830152602082019050919050565b60006138b5600e83614988565b91507f2c20226d61785f76616c7565223a0000000000000000000000000000000000006000830152600e82019050919050565b60006138f5602483614977565b91507f4552433732313a207472616e7366657220746f20746865207a65726f2061646460008301527f72657373000000000000000000000000000000000000000000000000000000006020830152604082019050919050565b600061395b601983614977565b91507f4552433732313a20617070726f766520746f2063616c6c6572000000000000006000830152602082019050919050565b600061399b602c83614977565b91507f4552433732313a206f70657261746f7220717565727920666f72206e6f6e657860008301527f697374656e7420746f6b656e00000000000000000000000000000000000000006020830152604082019050919050565b6000613a01603883614977565b91507f4552433732313a20617070726f76652063616c6c6572206973206e6f74206f7760008301527f6e6572206e6f7220617070726f76656420666f7220616c6c00000000000000006020830152604082019050919050565b6000613a67602a83614977565b91507f4552433732313a2062616c616e636520717565727920666f7220746865207a6560008301527f726f2061646472657373000000000000000000000000000000000000000000006020830152604082019050919050565b6000613acd602983614977565b91507f4552433732313a206f776e657220717565727920666f72206e6f6e657869737460008301527f656e7420746f6b656e00000000000000000000000000000000000000000000006020830152604082019050919050565b6000613b33603c83614988565b91507f222c202261747472696275746573223a205b7b202274726169745f747970652260008301527f3a20224865616c746820506f696e7473222c202276616c7565223a20000000006020830152603c82019050919050565b6000613b99600483614988565b91507f7d205d7d000000000000000000000000000000000000000000000000000000006000830152600482019050919050565b6000613bd9602083614977565b91507f4552433732313a206d696e7420746f20746865207a65726f20616464726573736000830152602082019050919050565b6000613c19602c83614977565b91507f4552433732313a20617070726f76656420717565727920666f72206e6f6e657860008301527f697374656e7420746f6b656e00000000000000000000000000000000000000006020830152604082019050919050565b6000613c7f600b83614988565b91507f222c202274797065223a220000000000000000000000000000000000000000006000830152600b82019050919050565b6000613cbf602983614977565b91507f4552433732313a207472616e73666572206f6620746f6b656e2074686174206960008301527f73206e6f74206f776e00000000000000000000000000000000000000000000006020830152604082019050919050565b6000613d25600a83614988565b91507f7b226e616d65223a2022000000000000000000000000000000000000000000006000830152600a82019050919050565b6000613d65603283614977565b91507f4572726f723a20506f6b656d6f6e204d757374204861766520485020746f204160008301527f747461636b205468652043726561746f722e00000000000000000000000000006020830152604082019050919050565b6000613dcb602183614977565b91507f4552433732313a20617070726f76616c20746f2063757272656e74206f776e6560008301527f72000000000000000000000000000000000000000000000000000000000000006020830152604082019050919050565b6000613e31601d83614988565b91507f646174613a6170706c69636174696f6e2f6a736f6e3b6261736536342c0000006000830152601d82019050919050565b6000613e71603183614977565b91507f4552433732313a207472616e736665722063616c6c6572206973206e6f74206f60008301527f776e6572206e6f7220617070726f7665640000000000000000000000000000006020830152604082019050919050565b6000613ed7602d83614988565b91507f7d2c207b202274726169745f74797065223a202241747461636b2044616d616760008301527f65222c202276616c7565223a20000000000000000000000000000000000000006020830152602d82019050919050565b6000613f3d607b83614988565b91507f222c20226465736372697074696f6e223a20225468697320697320616e204e4660008301527f542074686174206c6574732070656f706c6520706c617920696e20746865206760208301527f616d652050696b6163687520416e6420546865204c6567656e6473204f66205460408301527f6865204d756c7469766572736521222c2022696d616765223a202200000000006060830152607b82019050919050565b600060c0830160008301518482036000860152613fff82826136b9565b9150506020830151848203602086015261401982826136b9565b915050604083015161402e60408601826141cd565b50606083015161404160608601826141cd565b50608083015161405460808601826141cd565b5060a083015184820360a086015261406c82826136b9565b9150508091505092915050565b600060e08301600083015161409160008601826141cd565b50602083015184820360208601526140a982826136b9565b915050604083015184820360408601526140c382826136b9565b915050606083015184820360608601526140dd82826136b9565b91505060808301516140f260808601826141cd565b5060a083015161410560a08601826141cd565b5060c083015161411860c08601826141cd565b508091505092915050565b600060e08301600083015161413b60008601826141cd565b506020830151848203602086015261415382826136b9565b9150506040830151848203604086015261416d82826136b9565b9150506060830151848203606086015261418782826136b9565b915050608083015161419c60808601826141cd565b5060a08301516141af60a08601826141cd565b5060c08301516141c260c08601826141cd565b508091505092915050565b6141d681614b12565b82525050565b6141e581614b12565b82525050565b60006141f682613d18565b9150614202828a61372b565b915061420d8261375c565b9150614219828961372b565b915061422482613f30565b9150614230828861372b565b915061423b82613c72565b9150614247828761372b565b915061425282613b26565b915061425e828661372b565b9150614269826138a8565b9150614275828561372b565b915061428082613eca565b915061428c828461372b565b915061429782613b8c565b915081905098975050505050505050565b60006142b382613e24565b91506142bf828461372b565b915081905092915050565b60006020820190506142df60008301846135ed565b92915050565b60006080820190506142fa60008301876135ed565b61430760208301866135ed565b61431460408301856141dc565b81810360608301526143268184613680565b905095945050505050565b600060608201905061434660008301866135ed565b61435360208301856141dc565b61436060408301846141dc565b949350505050565b6000602082019050818103600083015261438281846135fc565b905092915050565b600060208201905061439f6000830184613671565b92915050565b600060208201905081810360008301526143bf81846136f2565b905092915050565b600060808201905081810360008301526143e181876136f2565b905081810360208301526143f581866136f2565b9050818103604083015261440981856136f2565b9050818103606083015261441d81846136f2565b905095945050505050565b6000608082019050818103600083015261444281876136f2565b9050818103602083015261445681866136f2565b905061446560408301856141dc565b818103606083015261447781846136f2565b905095945050505050565b6000608082019050818103600083015261449c81876136f2565b905081810360208301526144b081866136f2565b90506144bf60408301856141dc565b6144cc60608301846141dc565b95945050505050565b600060c08201905081810360008301526144ef81896136f2565b9050818103602083015261450381886136f2565b905061451260408301876141dc565b61451f60608301866141dc565b61452c60808301856141dc565b81810360a083015261453e81846136f2565b9050979650505050505050565b6000604082019050818103600083015261456581856136f2565b905061457460208301846141dc565b9392505050565b6000606082019050818103600083015261459581866136f2565b90506145a460208301856141dc565b6145b160408301846141dc565b949350505050565b600060208201905081810360008301526145d28161379c565b9050919050565b600060208201905081810360008301526145f281613802565b9050919050565b6000602082019050818103600083015261461281613868565b9050919050565b60006020820190508181036000830152614632816138e8565b9050919050565b600060208201905081810360008301526146528161394e565b9050919050565b600060208201905081810360008301526146728161398e565b9050919050565b60006020820190508181036000830152614692816139f4565b9050919050565b600060208201905081810360008301526146b281613a5a565b9050919050565b600060208201905081810360008301526146d281613ac0565b9050919050565b600060208201905081810360008301526146f281613bcc565b9050919050565b6000602082019050818103600083015261471281613c0c565b9050919050565b6000602082019050818103600083015261473281613cb2565b9050919050565b6000602082019050818103600083015261475281613d58565b9050919050565b6000602082019050818103600083015261477281613dbe565b9050919050565b6000602082019050818103600083015261479281613e64565b9050919050565b600060208201905081810360008301526147b38184613fe2565b905092915050565b600060208201905081810360008301526147d58184614123565b905092915050565b60006020820190506147f260008301846141dc565b92915050565b600060e08201905061480d600083018a6141dc565b818103602083015261481f81896136f2565b9050818103604083015261483381886136f2565b9050818103606083015261484781876136f2565b905061485660808301866141dc565b61486360a08301856141dc565b61487060c08301846141dc565b98975050505050505050565b600060408201905061489160008301856141dc565b61489e60208301846141dc565b9392505050565b6000604051905081810181811067ffffffffffffffff821117156148cc576148cb614c97565b5b8060405250919050565b600067ffffffffffffffff8211156148f1576148f0614c97565b5b601f19601f8301169050602081019050919050565b6000819050602082019050919050565b600081519050919050565b600081519050919050565b600081519050919050565b6000602082019050919050565b600082825260208201905092915050565b600082825260208201905092915050565b600082825260208201905092915050565b600082825260208201905092915050565b600081905092915050565b600061499e82614b12565b91506149a983614b12565b9250827fffffffffffffffffffffffffffffffffffffffffffffffffffffffffffffffff038211156149de576149dd614c0a565b5b828201905092915050565b60006149f482614b12565b91506149ff83614b12565b925082614a0f57614a0e614c39565b5b828204905092915050565b6000614a2582614b12565b9150614a3083614b12565b9250817fffffffffffffffffffffffffffffffffffffffffffffffffffffffffffffffff0483118215151615614a6957614a68614c0a565b5b828202905092915050565b6000614a7f82614b12565b9150614a8a83614b12565b925082821015614a9d57614a9c614c0a565b5b828203905092915050565b6000614ab382614af2565b9050919050565b60008115159050919050565b60007fffffffff0000000000000000000000000000000000000000000000000000000082169050919050565b600073ffffffffffffffffffffffffffffffffffffffff82169050919050565b6000819050919050565b82818337600083830152505050565b60005b83811015614b49578082015181840152602081019050614b2e565b83811115614b58576000848401525b50505050565b60006002820490506001821680614b7657607f821691505b60208210811415614b8a57614b89614c68565b5b50919050565b6000614b9b82614b12565b91507fffffffffffffffffffffffffffffffffffffffffffffffffffffffffffffffff821415614bce57614bcd614c0a565b5b600182019050919050565b6000614be482614b12565b9150614bef83614b12565b925082614bff57614bfe614c39565b5b828206905092915050565b7f4e487b7100000000000000000000000000000000000000000000000000000000600052601160045260246000fd5b7f4e487b7100000000000000000000000000000000000000000000000000000000600052601260045260246000fd5b7f4e487b7100000000000000000000000000000000000000000000000000000000600052602260045260246000fd5b7f4e487b7100000000000000000000000000000000000000000000000000000000600052604160045260246000fd5b6000601f19601f8301169050919050565b614ce081614aa8565b8114614ceb57600080fd5b50565b614cf781614aba565b8114614d0257600080fd5b50565b614d0e81614ac6565b8114614d1957600080fd5b50565b614d2581614b12565b8114614d3057600080fd5b5056fe506c617965722061747461636b656420626f73732e204e657720626f73732068703a2025734142434445464748494a4b4c4d4e4f505152535455565758595a6162636465666768696a6b6c6d6e6f707172737475767778797a303132333435363738392b2f426f73732061747461636b656420706c617965722e204e657720706c617965722068703a2025730a4d696e746564204e465420772f20746f6b656e496420257320616e6420636861726163746572496e6465782025730a506c6179657220772f206368617261637465722025732061626f757420746f2061747461636b2e2048617320257320485020616e64202573204144a2646970667358221220c0905161d72dd7bd10b4361cc4315a7eb07a4499922ddcee157b70ace9e7b98a64736f6c63430008000033446f6e6520696e697469616c697a696e6720257320772f20747970652025732c20696d61676520257350696b6163687520416e6420546865204d6f6e7374657273204f6620546865204d756c74697665727365446f6e6520696e697469616c697a696e6720626f737320257320772f2048502025732c20696d67202573",
  "linkReferences": {},
  "deployedLinkReferences": {}
}