{
  "_format": "hh-sol-artifact-1",
  "contractName": "PokemonNFTGame",
  "sourceName": "contracts/PokemonNFTGame.sol",
  "abi": [
    {
      "inputs": [
        {
          "internalType": "string[]",
          "name": "pokemonNames",
          "type": "string[]"
        },
        {
          "internalType": "string[]",
          "name": "pokemonImageURIs",
          "type": "string[]"
        },
        {
          "internalType": "uint256[]",
          "name": "pokemonHp",
          "type": "uint256[]"
        },
        {
          "internalType": "uint256[]",
          "name": "pokemonAttackDmg",
          "type": "uint256[]"
        },
        {
          "internalType": "string[]",
          "name": "pokemonTypes",
          "type": "string[]"
        },
        {
          "internalType": "string",
          "name": "godName",
          "type": "string"
        },
        {
          "internalType": "string",
          "name": "godImageURI",
          "type": "string"
        },
        {
          "internalType": "uint256",
          "name": "godHp",
          "type": "uint256"
        },
        {
          "internalType": "uint256",
          "name": "godAttackDamage",
          "type": "uint256"
        },
        {
          "internalType": "string",
          "name": "godType",
          "type": "string"
        }
      ],
      "stateMutability": "nonpayable",
      "type": "constructor"
    },
    {
      "anonymous": false,
      "inputs": [
        {
          "indexed": true,
          "internalType": "address",
          "name": "owner",
          "type": "address"
        },
        {
          "indexed": true,
          "internalType": "address",
          "name": "approved",
          "type": "address"
        },
        {
          "indexed": true,
          "internalType": "uint256",
          "name": "tokenId",
          "type": "uint256"
        }
      ],
      "name": "Approval",
      "type": "event"
    },
    {
      "anonymous": false,
      "inputs": [
        {
          "indexed": true,
          "internalType": "address",
          "name": "owner",
          "type": "address"
        },
        {
          "indexed": true,
          "internalType": "address",
          "name": "operator",
          "type": "address"
        },
        {
          "indexed": false,
          "internalType": "bool",
          "name": "approved",
          "type": "bool"
        }
      ],
      "name": "ApprovalForAll",
      "type": "event"
    },
    {
      "anonymous": false,
      "inputs": [
        {
          "indexed": false,
          "internalType": "uint256",
          "name": "newGodHp",
          "type": "uint256"
        },
        {
          "indexed": false,
          "internalType": "uint256",
          "name": "newPlayerHp",
          "type": "uint256"
        }
      ],
      "name": "AttackComplete",
      "type": "event"
    },
    {
      "anonymous": false,
      "inputs": [
        {
          "indexed": false,
          "internalType": "address",
          "name": "sender",
          "type": "address"
        },
        {
          "indexed": false,
          "internalType": "uint256",
          "name": "tokenId",
          "type": "uint256"
        },
        {
          "indexed": false,
          "internalType": "uint256",
          "name": "pokemonIndex",
          "type": "uint256"
        }
      ],
      "name": "PokemonNFTMinted",
      "type": "event"
    },
    {
      "anonymous": false,
      "inputs": [
        {
          "indexed": true,
          "internalType": "address",
          "name": "from",
          "type": "address"
        },
        {
          "indexed": true,
          "internalType": "address",
          "name": "to",
          "type": "address"
        },
        {
          "indexed": true,
          "internalType": "uint256",
          "name": "tokenId",
          "type": "uint256"
        }
      ],
      "name": "Transfer",
      "type": "event"
    },
    {
      "inputs": [
        {
          "internalType": "address",
          "name": "to",
          "type": "address"
        },
        {
          "internalType": "uint256",
          "name": "tokenId",
          "type": "uint256"
        }
      ],
      "name": "approve",
      "outputs": [],
      "stateMutability": "nonpayable",
      "type": "function"
    },
    {
      "inputs": [],
      "name": "attackGod",
      "outputs": [],
      "stateMutability": "nonpayable",
      "type": "function"
    },
    {
      "inputs": [
        {
          "internalType": "address",
          "name": "owner",
          "type": "address"
        }
      ],
      "name": "balanceOf",
      "outputs": [
        {
          "internalType": "uint256",
          "name": "",
          "type": "uint256"
        }
      ],
      "stateMutability": "view",
      "type": "function"
    },
    {
      "inputs": [],
      "name": "checkIfUserHasNFT",
      "outputs": [
        {
          "components": [
            {
              "internalType": "uint256",
              "name": "pokemonIndex",
              "type": "uint256"
            },
            {
              "internalType": "string",
              "name": "name",
              "type": "string"
            },
            {
              "internalType": "string",
              "name": "imageUri",
              "type": "string"
            },
            {
              "internalType": "string",
              "name": "pokemonType",
              "type": "string"
            },
            {
              "internalType": "uint256",
              "name": "hp",
              "type": "uint256"
            },
            {
              "internalType": "uint256",
              "name": "maxHp",
              "type": "uint256"
            },
            {
              "internalType": "uint256",
              "name": "attackDamage",
              "type": "uint256"
            }
          ],
          "internalType": "struct PokemonNFTGame.PokemonAttributes",
          "name": "",
          "type": "tuple"
        }
      ],
      "stateMutability": "view",
      "type": "function"
    },
    {
      "inputs": [],
      "name": "getAllDefaultPokemon",
      "outputs": [
        {
          "components": [
            {
              "internalType": "uint256",
              "name": "pokemonIndex",
              "type": "uint256"
            },
            {
              "internalType": "string",
              "name": "name",
              "type": "string"
            },
            {
              "internalType": "string",
              "name": "imageUri",
              "type": "string"
            },
            {
              "internalType": "string",
              "name": "pokemonType",
              "type": "string"
            },
            {
              "internalType": "uint256",
              "name": "hp",
              "type": "uint256"
            },
            {
              "internalType": "uint256",
              "name": "maxHp",
              "type": "uint256"
            },
            {
              "internalType": "uint256",
              "name": "attackDamage",
              "type": "uint256"
            }
          ],
          "internalType": "struct PokemonNFTGame.PokemonAttributes[]",
          "name": "",
          "type": "tuple[]"
        }
      ],
      "stateMutability": "view",
      "type": "function"
    },
    {
      "inputs": [
        {
          "internalType": "uint256",
          "name": "tokenId",
          "type": "uint256"
        }
      ],
      "name": "getApproved",
      "outputs": [
        {
          "internalType": "address",
          "name": "",
          "type": "address"
        }
      ],
      "stateMutability": "view",
      "type": "function"
    },
    {
      "inputs": [],
      "name": "getGod",
      "outputs": [
        {
          "components": [
            {
              "internalType": "string",
              "name": "name",
              "type": "string"
            },
            {
              "internalType": "string",
              "name": "imageURI",
              "type": "string"
            },
            {
              "internalType": "uint256",
              "name": "hp",
              "type": "uint256"
            },
            {
              "internalType": "uint256",
              "name": "maxHp",
              "type": "uint256"
            },
            {
              "internalType": "uint256",
              "name": "attackDamage",
              "type": "uint256"
            },
            {
              "internalType": "string",
              "name": "godType",
              "type": "string"
            }
          ],
          "internalType": "struct PokemonNFTGame.MultiverseGod",
          "name": "",
          "type": "tuple"
        }
      ],
      "stateMutability": "view",
      "type": "function"
    },
    {
      "inputs": [
        {
          "internalType": "address",
          "name": "owner",
          "type": "address"
        },
        {
          "internalType": "address",
          "name": "operator",
          "type": "address"
        }
      ],
      "name": "isApprovedForAll",
      "outputs": [
        {
          "internalType": "bool",
          "name": "",
          "type": "bool"
        }
      ],
      "stateMutability": "view",
      "type": "function"
    },
    {
      "inputs": [
        {
          "internalType": "uint256",
          "name": "_pokemonIndex",
          "type": "uint256"
        }
      ],
      "name": "mintPokemonNFT",
      "outputs": [],
      "stateMutability": "nonpayable",
      "type": "function"
    },
    {
      "inputs": [],
      "name": "multiverseGod",
      "outputs": [
        {
          "internalType": "string",
          "name": "name",
          "type": "string"
        },
        {
          "internalType": "string",
          "name": "imageURI",
          "type": "string"
        },
        {
          "internalType": "uint256",
          "name": "hp",
          "type": "uint256"
        },
        {
          "internalType": "uint256",
          "name": "maxHp",
          "type": "uint256"
        },
        {
          "internalType": "uint256",
          "name": "attackDamage",
          "type": "uint256"
        },
        {
          "internalType": "string",
          "name": "godType",
          "type": "string"
        }
      ],
      "stateMutability": "view",
      "type": "function"
    },
    {
      "inputs": [],
      "name": "name",
      "outputs": [
        {
          "internalType": "string",
          "name": "",
          "type": "string"
        }
      ],
      "stateMutability": "view",
      "type": "function"
    },
    {
      "inputs": [
        {
          "internalType": "uint256",
          "name": "",
          "type": "uint256"
        }
      ],
      "name": "nftHolderAttributes",
      "outputs": [
        {
          "internalType": "uint256",
          "name": "pokemonIndex",
          "type": "uint256"
        },
        {
          "internalType": "string",
          "name": "name",
          "type": "string"
        },
        {
          "internalType": "string",
          "name": "imageUri",
          "type": "string"
        },
        {
          "internalType": "string",
          "name": "pokemonType",
          "type": "string"
        },
        {
          "internalType": "uint256",
          "name": "hp",
          "type": "uint256"
        },
        {
          "internalType": "uint256",
          "name": "maxHp",
          "type": "uint256"
        },
        {
          "internalType": "uint256",
          "name": "attackDamage",
          "type": "uint256"
        }
      ],
      "stateMutability": "view",
      "type": "function"
    },
    {
      "inputs": [
        {
          "internalType": "address",
          "name": "",
          "type": "address"
        }
      ],
      "name": "nftHolders",
      "outputs": [
        {
          "internalType": "uint256",
          "name": "",
          "type": "uint256"
        }
      ],
      "stateMutability": "view",
      "type": "function"
    },
    {
      "inputs": [
        {
          "internalType": "uint256",
          "name": "tokenId",
          "type": "uint256"
        }
      ],
      "name": "ownerOf",
      "outputs": [
        {
          "internalType": "address",
          "name": "",
          "type": "address"
        }
      ],
      "stateMutability": "view",
      "type": "function"
    },
    {
      "inputs": [
        {
          "internalType": "address",
          "name": "from",
          "type": "address"
        },
        {
          "internalType": "address",
          "name": "to",
          "type": "address"
        },
        {
          "internalType": "uint256",
          "name": "tokenId",
          "type": "uint256"
        }
      ],
      "name": "safeTransferFrom",
      "outputs": [],
      "stateMutability": "nonpayable",
      "type": "function"
    },
    {
      "inputs": [
        {
          "internalType": "address",
          "name": "from",
          "type": "address"
        },
        {
          "internalType": "address",
          "name": "to",
          "type": "address"
        },
        {
          "internalType": "uint256",
          "name": "tokenId",
          "type": "uint256"
        },
        {
          "internalType": "bytes",
          "name": "_data",
          "type": "bytes"
        }
      ],
      "name": "safeTransferFrom",
      "outputs": [],
      "stateMutability": "nonpayable",
      "type": "function"
    },
    {
      "inputs": [
        {
          "internalType": "address",
          "name": "operator",
          "type": "address"
        },
        {
          "internalType": "bool",
          "name": "approved",
          "type": "bool"
        }
      ],
      "name": "setApprovalForAll",
      "outputs": [],
      "stateMutability": "nonpayable",
      "type": "function"
    },
    {
      "inputs": [
        {
          "internalType": "bytes4",
          "name": "interfaceId",
          "type": "bytes4"
        }
      ],
      "name": "supportsInterface",
      "outputs": [
        {
          "internalType": "bool",
          "name": "",
          "type": "bool"
        }
      ],
      "stateMutability": "view",
      "type": "function"
    },
    {
      "inputs": [],
      "name": "symbol",
      "outputs": [
        {
          "internalType": "string",
          "name": "",
          "type": "string"
        }
      ],
      "stateMutability": "view",
      "type": "function"
    },
    {
      "inputs": [
        {
          "internalType": "uint256",
          "name": "_tokenId",
          "type": "uint256"
        }
      ],
      "name": "tokenURI",
      "outputs": [
        {
          "internalType": "string",
          "name": "",
          "type": "string"
        }
      ],
      "stateMutability": "view",
      "type": "function"
    },
    {
      "inputs": [
        {
          "internalType": "address",
          "name": "from",
          "type": "address"
        },
        {
          "internalType": "address",
          "name": "to",
          "type": "address"
        },
        {
          "internalType": "uint256",
          "name": "tokenId",
          "type": "uint256"
        }
      ],
      "name": "transferFrom",
      "outputs": [],
      "stateMutability": "nonpayable",
      "type": "function"
    }
  ],
  "bytecode": "0x60806040523480156200001157600080fd5b5060405162005fd338038062005fd3833981810160405281019062000037919062000c2d565b6040518060400160405280601a81526020017f54686520576172204f6620546865204c6567656e6461726965730000000000008152506040518060400160405280601281526020017f4d756c7469766572736520506f6b656d6f6e00000000000000000000000000008152508160009080519060200190620000bb929190620009c0565b508060019080519060200190620000d4929190620009c0565b5050506040518060c00160405280868152602001858152602001848152602001848152602001838152602001828152506009600082015181600001908051906020019062000124929190620009c0565b50602082015181600101908051906020019062000143929190620009c0565b5060408201518160020155606082015181600301556080820151816004015560a082015181600501908051906020019062000180929190620009c0565b50905050620002e56040518060600160405280602a815260200162005fa9602a913960096000018054620001b49062001080565b80601f0160208091040260200160405190810160405280929190818152602001828054620001e29062001080565b8015620002335780601f10620002075761010080835404028352916020019162000233565b820191906000526020600020905b8154815290600101906020018083116200021557829003601f168201915b505050505060096002015460096001018054620002509062001080565b80601f01602080910402602001604051908101604052809291908181526020018280546200027e9062001080565b8015620002cf5780601f10620002a357610100808354040283529160200191620002cf565b820191906000526020600020905b815481529060010190602001808311620002b157829003601f168201915b50505050506200082960201b620020611760201c565b60005b8a51811015620008015760076040518060e001604052808381526020018d84815181106200033f577f4e487b7100000000000000000000000000000000000000000000000000000000600052603260045260246000fd5b602002602001015181526020018c848151811062000386577f4e487b7100000000000000000000000000000000000000000000000000000000600052603260045260246000fd5b60200260200101518152602001898481518110620003cd577f4e487b7100000000000000000000000000000000000000000000000000000000600052603260045260246000fd5b602002602001015181526020018b848151811062000414577f4e487b7100000000000000000000000000000000000000000000000000000000600052603260045260246000fd5b602002602001015181526020018b84815181106200045b577f4e487b7100000000000000000000000000000000000000000000000000000000600052603260045260246000fd5b602002602001015181526020018a8481518110620004a2577f4e487b7100000000000000000000000000000000000000000000000000000000600052603260045260246000fd5b60200260200101518152509080600181540180825580915050600190039060005260206000209060070201600090919091909150600082015181600001556020820151816001019080519060200190620004fe929190620009c0565b5060408201518160020190805190602001906200051d929190620009c0565b5060608201518160030190805190602001906200053c929190620009c0565b506080820151816004015560a0820151816005015560c0820151816006015550506000600782815481106200059a577f4e487b7100000000000000000000000000000000000000000000000000000000600052603260045260246000fd5b90600052602060002090600702016040518060e001604052908160008201548152602001600182018054620005cf9062001080565b80601f0160208091040260200160405190810160405280929190818152602001828054620005fd9062001080565b80156200064e5780601f1062000622576101008083540402835291602001916200064e565b820191906000526020600020905b8154815290600101906020018083116200063057829003601f168201915b50505050508152602001600282018054620006699062001080565b80601f0160208091040260200160405190810160405280929190818152602001828054620006979062001080565b8015620006e85780601f10620006bc57610100808354040283529160200191620006e8565b820191906000526020600020905b815481529060010190602001808311620006ca57829003601f168201915b50505050508152602001600382018054620007039062001080565b80601f0160208091040260200160405190810160405280929190818152602001828054620007319062001080565b8015620007825780601f10620007565761010080835404028352916020019162000782565b820191906000526020600020905b8154815290600101906020018083116200076457829003601f168201915b5050505050815260200160048201548152602001600582015481526020016006820154815250509050620007e960405180606001604052806029815260200162005f8060299139826020015183606001518460400151620008d560201b620021031760201c565b50600181620007f9919062000fe3565b9050620002e8565b506200081960066200098160201b620021a51760201c565b505050505050505050506200116e565b620008cf8484848460405160240162000846949392919062000ea0565b6040516020818303038152906040527f8d142cdd000000000000000000000000000000000000000000000000000000007bffffffffffffffffffffffffffffffffffffffffffffffffffffffff19166020820180517bffffffffffffffffffffffffffffffffffffffffffffffffffffffff83818316178352505050506200099760201b60201c565b50505050565b6200097b84848484604051602401620008f2949392919062000e37565b6040516020818303038152906040527fde68f20a000000000000000000000000000000000000000000000000000000007bffffffffffffffffffffffffffffffffffffffffffffffffffffffff19166020820180517bffffffffffffffffffffffffffffffffffffffffffffffffffffffff83818316178352505050506200099760201b60201c565b50505050565b6001816000016000828254019250508190555050565b60008151905060006a636f6e736f6c652e6c6f679050602083016000808483855afa5050505050565b828054620009ce9062001080565b90600052602060002090601f016020900481019282620009f2576000855562000a3e565b82601f1062000a0d57805160ff191683800117855562000a3e565b8280016001018555821562000a3e579182015b8281111562000a3d57825182559160200191906001019062000a20565b5b50905062000a4d919062000a51565b5090565b5b8082111562000a6c57600081600090555060010162000a52565b5090565b600062000a8762000a818462000f36565b62000f02565b9050808382526020820190508260005b8581101562000acb578151850162000ab0888262000be9565b84526020840193506020830192505060018101905062000a97565b5050509392505050565b600062000aec62000ae68462000f65565b62000f02565b9050808382526020820190508285602086028201111562000b0c57600080fd5b60005b8581101562000b40578162000b25888262000c16565b84526020840193506020830192505060018101905062000b0f565b5050509392505050565b600062000b6162000b5b8462000f94565b62000f02565b90508281526020810184848401111562000b7a57600080fd5b62000b878482856200104a565b509392505050565b600082601f83011262000ba157600080fd5b815162000bb384826020860162000a70565b91505092915050565b600082601f83011262000bce57600080fd5b815162000be084826020860162000ad5565b91505092915050565b600082601f83011262000bfb57600080fd5b815162000c0d84826020860162000b4a565b91505092915050565b60008151905062000c278162001154565b92915050565b6000806000806000806000806000806101408b8d03121562000c4e57600080fd5b60008b015167ffffffffffffffff81111562000c6957600080fd5b62000c778d828e0162000b8f565b9a505060208b015167ffffffffffffffff81111562000c9557600080fd5b62000ca38d828e0162000b8f565b99505060408b015167ffffffffffffffff81111562000cc157600080fd5b62000ccf8d828e0162000bbc565b98505060608b015167ffffffffffffffff81111562000ced57600080fd5b62000cfb8d828e0162000bbc565b97505060808b015167ffffffffffffffff81111562000d1957600080fd5b62000d278d828e0162000b8f565b96505060a08b015167ffffffffffffffff81111562000d4557600080fd5b62000d538d828e0162000be9565b95505060c08b015167ffffffffffffffff81111562000d7157600080fd5b62000d7f8d828e0162000be9565b94505060e062000d928d828e0162000c16565b93505061010062000da68d828e0162000c16565b9250506101208b015167ffffffffffffffff81111562000dc557600080fd5b62000dd38d828e0162000be9565b9150509295989b9194979a5092959850565b600062000df28262000fc7565b62000dfe818562000fd2565b935062000e108185602086016200104a565b62000e1b8162001143565b840191505092915050565b62000e318162001040565b82525050565b6000608082019050818103600083015262000e53818762000de5565b9050818103602083015262000e69818662000de5565b9050818103604083015262000e7f818562000de5565b9050818103606083015262000e95818462000de5565b905095945050505050565b6000608082019050818103600083015262000ebc818762000de5565b9050818103602083015262000ed2818662000de5565b905062000ee3604083018562000e26565b818103606083015262000ef7818462000de5565b905095945050505050565b6000604051905081810181811067ffffffffffffffff8211171562000f2c5762000f2b62001114565b5b8060405250919050565b600067ffffffffffffffff82111562000f545762000f5362001114565b5b602082029050602081019050919050565b600067ffffffffffffffff82111562000f835762000f8262001114565b5b602082029050602081019050919050565b600067ffffffffffffffff82111562000fb25762000fb162001114565b5b601f19601f8301169050602081019050919050565b600081519050919050565b600082825260208201905092915050565b600062000ff08262001040565b915062000ffd8362001040565b9250827fffffffffffffffffffffffffffffffffffffffffffffffffffffffffffffffff03821115620010355762001034620010b6565b5b828201905092915050565b6000819050919050565b60005b838110156200106a5780820151818401526020810190506200104d565b838111156200107a576000848401525b50505050565b600060028204905060018216806200109957607f821691505b60208210811415620010b057620010af620010e5565b5b50919050565b7f4e487b7100000000000000000000000000000000000000000000000000000000600052601160045260246000fd5b7f4e487b7100000000000000000000000000000000000000000000000000000000600052602260045260246000fd5b7f4e487b7100000000000000000000000000000000000000000000000000000000600052604160045260246000fd5b6000601f19601f8301169050919050565b6200115f8162001040565b81146200116b57600080fd5b50565b614e02806200117e6000396000f3fe608060405234801561001057600080fd5b50600436106101375760003560e01c80637df124a1116100b8578063b88d4fde1161007c578063b88d4fde1461036b578063c034ec6214610387578063c87b56dd146103a5578063c8cf27f4146103d5578063e985e9c5146103f3578063ff8fdd2f1461042357610137565b80637df124a1146102a857806395d89b41146102d857806398da4c95146102f6578063a22cb4651461032c578063b12ebaec1461034857610137565b8063343023af116100ff578063343023af146101f257806342842e0e1461020e5780636352211e1461022a5780636432d0441461025a57806370a082311461027857610137565b806301ffc9a71461013c57806306fdde031461016c578063081812fc1461018a578063095ea7b3146101ba57806323b872dd146101d6575b600080fd5b61015660048036038101906101519190613558565b61042d565b604051610163919061432c565b60405180910390f35b61017461050f565b6040516101819190614347565b60405180910390f35b6101a4600480360381019061019f91906135aa565b6105a1565b6040516101b1919061426c565b60405180910390f35b6101d460048036038101906101cf919061351c565b610626565b005b6101f060048036038101906101eb9190613416565b61073e565b005b61020c600480360381019061020791906135aa565b61079e565b005b61022860048036038101906102239190613416565b610c88565b005b610244600480360381019061023f91906135aa565b610ca8565b604051610251919061426c565b60405180910390f35b610262610d5a565b60405161026f919061430a565b60405180910390f35b610292600480360381019061028d91906133b1565b610f97565b60405161029f919061477f565b60405180910390f35b6102c260048036038101906102bd91906133b1565b61104f565b6040516102cf919061477f565b60405180910390f35b6102e0611067565b6040516102ed9190614347565b60405180910390f35b610310600480360381019061030b91906135aa565b6110f9565b604051610323979695949392919061479a565b60405180910390f35b610346600480360381019061034191906134e0565b6112d3565b005b6103506112e9565b60405161036296959493929190614477565b60405180910390f35b61038560048036038101906103809190613465565b6114ab565b005b61038f61150d565b60405161039c919061473b565b60405180910390f35b6103bf60048036038101906103ba91906135aa565b6116fb565b6040516103cc9190614347565b60405180910390f35b6103dd6119a8565b6040516103ea919061475d565b60405180910390f35b61040d600480360381019061040891906133da565b611c12565b60405161041a919061432c565b60405180910390f35b61042b611ca6565b005b60007f80ac58cd000000000000000000000000000000000000000000000000000000007bffffffffffffffffffffffffffffffffffffffffffffffffffffffff1916827bffffffffffffffffffffffffffffffffffffffffffffffffffffffff191614806104f857507f5b5e139f000000000000000000000000000000000000000000000000000000007bffffffffffffffffffffffffffffffffffffffffffffffffffffffff1916827bffffffffffffffffffffffffffffffffffffffffffffffffffffffff1916145b806105085750610507826121bb565b5b9050919050565b60606000805461051e90614b00565b80601f016020809104026020016040519081016040528092919081815260200182805461054a90614b00565b80156105975780601f1061056c57610100808354040283529160200191610597565b820191906000526020600020905b81548152906001019060200180831161057a57829003601f168201915b5050505050905090565b60006105ac82612225565b6105eb576040517f08c379a00000000000000000000000000000000000000000000000000000000081526004016105e29061469b565b60405180910390fd5b6004600083815260200190815260200160002060009054906101000a900473ffffffffffffffffffffffffffffffffffffffff169050919050565b600061063182610ca8565b90508073ffffffffffffffffffffffffffffffffffffffff168373ffffffffffffffffffffffffffffffffffffffff1614156106a2576040517f08c379a0000000000000000000000000000000000000000000000000000000008152600401610699906146fb565b60405180910390fd5b8073ffffffffffffffffffffffffffffffffffffffff166106c1612291565b73ffffffffffffffffffffffffffffffffffffffff1614806106f057506106ef816106ea612291565b611c12565b5b61072f576040517f08c379a00000000000000000000000000000000000000000000000000000000081526004016107269061461b565b60405180910390fd5b6107398383612299565b505050565b61074f610749612291565b82612352565b61078e576040517f08c379a00000000000000000000000000000000000000000000000000000000081526004016107859061471b565b60405180910390fd5b610799838383612430565b505050565b60006107aa600661268c565b90506107b6338261269a565b6040518060e0016040528083815260200160078481548110610801577f4e487b7100000000000000000000000000000000000000000000000000000000600052603260045260246000fd5b9060005260206000209060070201600101805461081d90614b00565b80601f016020809104026020016040519081016040528092919081815260200182805461084990614b00565b80156108965780601f1061086b57610100808354040283529160200191610896565b820191906000526020600020905b81548152906001019060200180831161087957829003601f168201915b50505050508152602001600784815481106108da577f4e487b7100000000000000000000000000000000000000000000000000000000600052603260045260246000fd5b906000526020600020906007020160020180546108f690614b00565b80601f016020809104026020016040519081016040528092919081815260200182805461092290614b00565b801561096f5780601f106109445761010080835404028352916020019161096f565b820191906000526020600020905b81548152906001019060200180831161095257829003601f168201915b50505050508152602001600784815481106109b3577f4e487b7100000000000000000000000000000000000000000000000000000000600052603260045260246000fd5b906000526020600020906007020160030180546109cf90614b00565b80601f01602080910402602001604051908101604052809291908181526020018280546109fb90614b00565b8015610a485780601f10610a1d57610100808354040283529160200191610a48565b820191906000526020600020905b815481529060010190602001808311610a2b57829003601f168201915b5050505050815260200160078481548110610a8c577f4e487b7100000000000000000000000000000000000000000000000000000000600052603260045260246000fd5b906000526020600020906007020160040154815260200160078481548110610add577f4e487b7100000000000000000000000000000000000000000000000000000000600052603260045260246000fd5b906000526020600020906007020160050154815260200160078481548110610b2e577f4e487b7100000000000000000000000000000000000000000000000000000000600052603260045260246000fd5b90600052602060002090600702016006015481525060086000838152602001908152602001600020600082015181600001556020820151816001019080519060200190610b7c9291906131ca565b506040820151816002019080519060200190610b999291906131ca565b506060820151816003019080519060200190610bb69291906131ca565b506080820151816004015560a0820151816005015560c08201518160060155905050610bfb6040518060600160405280602e8152602001614d63602e913982846126b8565b80600f60003373ffffffffffffffffffffffffffffffffffffffff1673ffffffffffffffffffffffffffffffffffffffff16815260200190815260200160002081905550610c4960066121a5565b7f60e1f0c62ae107984ff8409b83c23d1025c9e003037cf8d4fb479c49645b3140338284604051610c7c939291906142d3565b60405180910390a15050565b610ca3838383604051806020016040528060008152506114ab565b505050565b6000806002600084815260200190815260200160002060009054906101000a900473ffffffffffffffffffffffffffffffffffffffff169050600073ffffffffffffffffffffffffffffffffffffffff168173ffffffffffffffffffffffffffffffffffffffff161415610d51576040517f08c379a0000000000000000000000000000000000000000000000000000000008152600401610d489061465b565b60405180910390fd5b80915050919050565b60606007805480602002602001604051908101604052809291908181526020016000905b82821015610f8e57838290600052602060002090600702016040518060e001604052908160008201548152602001600182018054610dbb90614b00565b80601f0160208091040260200160405190810160405280929190818152602001828054610de790614b00565b8015610e345780601f10610e0957610100808354040283529160200191610e34565b820191906000526020600020905b815481529060010190602001808311610e1757829003601f168201915b50505050508152602001600282018054610e4d90614b00565b80601f0160208091040260200160405190810160405280929190818152602001828054610e7990614b00565b8015610ec65780601f10610e9b57610100808354040283529160200191610ec6565b820191906000526020600020905b815481529060010190602001808311610ea957829003601f168201915b50505050508152602001600382018054610edf90614b00565b80601f0160208091040260200160405190810160405280929190818152602001828054610f0b90614b00565b8015610f585780601f10610f2d57610100808354040283529160200191610f58565b820191906000526020600020905b815481529060010190602001808311610f3b57829003601f168201915b50505050508152602001600482015481526020016005820154815260200160068201548152505081526020019060010190610d7e565b50505050905090565b60008073ffffffffffffffffffffffffffffffffffffffff168273ffffffffffffffffffffffffffffffffffffffff161415611008576040517f08c379a0000000000000000000000000000000000000000000000000000000008152600401610fff9061463b565b60405180910390fd5b600360008373ffffffffffffffffffffffffffffffffffffffff1673ffffffffffffffffffffffffffffffffffffffff168152602001908152602001600020549050919050565b600f6020528060005260406000206000915090505481565b60606001805461107690614b00565b80601f01602080910402602001604051908101604052809291908181526020018280546110a290614b00565b80156110ef5780601f106110c4576101008083540402835291602001916110ef565b820191906000526020600020905b8154815290600101906020018083116110d257829003601f168201915b5050505050905090565b600860205280600052604060002060009150905080600001549080600101805461112290614b00565b80601f016020809104026020016040519081016040528092919081815260200182805461114e90614b00565b801561119b5780601f106111705761010080835404028352916020019161119b565b820191906000526020600020905b81548152906001019060200180831161117e57829003601f168201915b5050505050908060020180546111b090614b00565b80601f01602080910402602001604051908101604052809291908181526020018280546111dc90614b00565b80156112295780601f106111fe57610100808354040283529160200191611229565b820191906000526020600020905b81548152906001019060200180831161120c57829003601f168201915b50505050509080600301805461123e90614b00565b80601f016020809104026020016040519081016040528092919081815260200182805461126a90614b00565b80156112b75780601f1061128c576101008083540402835291602001916112b7565b820191906000526020600020905b81548152906001019060200180831161129a57829003601f168201915b5050505050908060040154908060050154908060060154905087565b6112e56112de612291565b8383612757565b5050565b60098060000180546112fa90614b00565b80601f016020809104026020016040519081016040528092919081815260200182805461132690614b00565b80156113735780601f1061134857610100808354040283529160200191611373565b820191906000526020600020905b81548152906001019060200180831161135657829003601f168201915b50505050509080600101805461138890614b00565b80601f01602080910402602001604051908101604052809291908181526020018280546113b490614b00565b80156114015780601f106113d657610100808354040283529160200191611401565b820191906000526020600020905b8154815290600101906020018083116113e457829003601f168201915b50505050509080600201549080600301549080600401549080600501805461142890614b00565b80601f016020809104026020016040519081016040528092919081815260200182805461145490614b00565b80156114a15780601f10611476576101008083540402835291602001916114a1565b820191906000526020600020905b81548152906001019060200180831161148457829003601f168201915b5050505050905086565b6114bc6114b6612291565b83612352565b6114fb576040517f08c379a00000000000000000000000000000000000000000000000000000000081526004016114f29061471b565b60405180910390fd5b611507848484846128c4565b50505050565b611515613250565b60096040518060c001604052908160008201805461153290614b00565b80601f016020809104026020016040519081016040528092919081815260200182805461155e90614b00565b80156115ab5780601f10611580576101008083540402835291602001916115ab565b820191906000526020600020905b81548152906001019060200180831161158e57829003601f168201915b505050505081526020016001820180546115c490614b00565b80601f01602080910402602001604051908101604052809291908181526020018280546115f090614b00565b801561163d5780601f106116125761010080835404028352916020019161163d565b820191906000526020600020905b81548152906001019060200180831161162057829003601f168201915b5050505050815260200160028201548152602001600382015481526020016004820154815260200160058201805461167490614b00565b80601f01602080910402602001604051908101604052809291908181526020018280546116a090614b00565b80156116ed5780601f106116c2576101008083540402835291602001916116ed565b820191906000526020600020905b8154815290600101906020018083116116d057829003601f168201915b505050505081525050905090565b60606000600860008481526020019081526020016000206040518060e00160405290816000820154815260200160018201805461173790614b00565b80601f016020809104026020016040519081016040528092919081815260200182805461176390614b00565b80156117b05780601f10611785576101008083540402835291602001916117b0565b820191906000526020600020905b81548152906001019060200180831161179357829003601f168201915b505050505081526020016002820180546117c990614b00565b80601f01602080910402602001604051908101604052809291908181526020018280546117f590614b00565b80156118425780601f1061181757610100808354040283529160200191611842565b820191906000526020600020905b81548152906001019060200180831161182557829003601f168201915b5050505050815260200160038201805461185b90614b00565b80601f016020809104026020016040519081016040528092919081815260200182805461188790614b00565b80156118d45780601f106118a9576101008083540402835291602001916118d4565b820191906000526020600020905b8154815290600101906020018083116118b757829003601f168201915b5050505050815260200160048201548152602001600582015481526020016006820154815250509050600061190c8260800151612920565b9050600061191d8360a00151612920565b9050600061192e8460c00151612920565b90506000611974856020015161194389612920565b8760400151878787604051602001611960969594939291906141a5565b604051602081830303815290604052612acd565b9050600081604051602001611989919061424a565b6040516020818303038152906040529050809650505050505050919050565b6119b0613286565b6000600f60003373ffffffffffffffffffffffffffffffffffffffff1673ffffffffffffffffffffffffffffffffffffffff1681526020019081526020016000205490506000811115611c0157600860008281526020019081526020016000206040518060e001604052908160008201548152602001600182018054611a3590614b00565b80601f0160208091040260200160405190810160405280929190818152602001828054611a6190614b00565b8015611aae5780601f10611a8357610100808354040283529160200191611aae565b820191906000526020600020905b815481529060010190602001808311611a9157829003601f168201915b50505050508152602001600282018054611ac790614b00565b80601f0160208091040260200160405190810160405280929190818152602001828054611af390614b00565b8015611b405780601f10611b1557610100808354040283529160200191611b40565b820191906000526020600020905b815481529060010190602001808311611b2357829003601f168201915b50505050508152602001600382018054611b5990614b00565b80601f0160208091040260200160405190810160405280929190818152602001828054611b8590614b00565b8015611bd25780601f10611ba757610100808354040283529160200191611bd2565b820191906000526020600020905b815481529060010190602001808311611bb557829003601f168201915b505050505081526020016004820154815260200160058201548152602001600682015481525050915050611c0f565b611c09613286565b80925050505b90565b6000600560008473ffffffffffffffffffffffffffffffffffffffff1673ffffffffffffffffffffffffffffffffffffffff16815260200190815260200160002060008373ffffffffffffffffffffffffffffffffffffffff1673ffffffffffffffffffffffffffffffffffffffff16815260200190815260200160002060009054906101000a900460ff16905092915050565b6000600f60003373ffffffffffffffffffffffffffffffffffffffff1673ffffffffffffffffffffffffffffffffffffffff1681526020019081526020016000205490506000600860008381526020019081526020016000209050611db96040518060600160405280603c8152602001614d91603c9139826001018054611d2c90614b00565b80601f0160208091040260200160405190810160405280929190818152602001828054611d5890614b00565b8015611da55780601f10611d7a57610100808354040283529160200191611da5565b820191906000526020600020905b815481529060010190602001808311611d8857829003601f168201915b505050505083600401548460060154612c8b565b611e916040518060400160405280601b81526020017f426f73732025732068617320257320485020616e64202573204144000000000081525060096000018054611e0290614b00565b80601f0160208091040260200160405190810160405280929190818152602001828054611e2e90614b00565b8015611e7b5780601f10611e5057610100808354040283529160200191611e7b565b820191906000526020600020905b815481529060010190602001808311611e5e57829003601f168201915b5050505050600960020154600960040154612c8b565b6000816004015411611ed8576040517f08c379a0000000000000000000000000000000000000000000000000000000008152600401611ecf906146db565b60405180910390fd5b600060096002015411611f20576040517f08c379a0000000000000000000000000000000000000000000000000000000008152600401611f179061457b565b60405180910390fd5b600a8160060154611f31919061498b565b6009600201541015611f4d576000600960020181905550611f78565b600a8160060154611f5e919061498b565b600960020154611f6e9190614a16565b6009600201819055505b600a600960040154611f8a919061498b565b81600401541015611fa45760008160040181905550611fce565b600a600960040154611fb6919061498b565b8160040154611fc59190614a16565b81600401819055505b611ff5604051806060016040528060258152602001614cd660259139600960020154612d2d565b61201b604051806060016040528060288152602001614d3b602891398260040154612d2d565b7f838ab28464562786a6c4ab2311964b82fa60bd9b14aa7e856af1f3f18d41a414600960020154826004015460405161205592919061481e565b60405180910390a15050565b6120fd8484848460405160240161207b94939291906143ca565b6040516020818303038152906040527f8d142cdd000000000000000000000000000000000000000000000000000000007bffffffffffffffffffffffffffffffffffffffffffffffffffffffff19166020820180517bffffffffffffffffffffffffffffffffffffffffffffffffffffffff8381831617835250505050612dc9565b50505050565b61219f8484848460405160240161211d9493929190614369565b6040516020818303038152906040527fde68f20a000000000000000000000000000000000000000000000000000000007bffffffffffffffffffffffffffffffffffffffffffffffffffffffff19166020820180517bffffffffffffffffffffffffffffffffffffffffffffffffffffffff8381831617835250505050612dc9565b50505050565b6001816000016000828254019250508190555050565b60007f01ffc9a7000000000000000000000000000000000000000000000000000000007bffffffffffffffffffffffffffffffffffffffffffffffffffffffff1916827bffffffffffffffffffffffffffffffffffffffffffffffffffffffff1916149050919050565b60008073ffffffffffffffffffffffffffffffffffffffff166002600084815260200190815260200160002060009054906101000a900473ffffffffffffffffffffffffffffffffffffffff1673ffffffffffffffffffffffffffffffffffffffff1614159050919050565b600033905090565b816004600083815260200190815260200160002060006101000a81548173ffffffffffffffffffffffffffffffffffffffff021916908373ffffffffffffffffffffffffffffffffffffffff160217905550808273ffffffffffffffffffffffffffffffffffffffff1661230c83610ca8565b73ffffffffffffffffffffffffffffffffffffffff167f8c5be1e5ebec7d5bd14f71427d1e84f3dd0314c0f7b2291e5b200ac8c7c3b92560405160405180910390a45050565b600061235d82612225565b61239c576040517f08c379a0000000000000000000000000000000000000000000000000000000008152600401612393906145fb565b60405180910390fd5b60006123a783610ca8565b90508073ffffffffffffffffffffffffffffffffffffffff168473ffffffffffffffffffffffffffffffffffffffff16148061241657508373ffffffffffffffffffffffffffffffffffffffff166123fe846105a1565b73ffffffffffffffffffffffffffffffffffffffff16145b8061242757506124268185611c12565b5b91505092915050565b8273ffffffffffffffffffffffffffffffffffffffff1661245082610ca8565b73ffffffffffffffffffffffffffffffffffffffff16146124a6576040517f08c379a000000000000000000000000000000000000000000000000000000000815260040161249d906146bb565b60405180910390fd5b600073ffffffffffffffffffffffffffffffffffffffff168273ffffffffffffffffffffffffffffffffffffffff161415612516576040517f08c379a000000000000000000000000000000000000000000000000000000000815260040161250d906145bb565b60405180910390fd5b612521838383612df2565b61252c600082612299565b6001600360008573ffffffffffffffffffffffffffffffffffffffff1673ffffffffffffffffffffffffffffffffffffffff168152602001908152602001600020600082825461257c9190614a16565b925050819055506001600360008473ffffffffffffffffffffffffffffffffffffffff1673ffffffffffffffffffffffffffffffffffffffff16815260200190815260200160002060008282546125d39190614935565b92505081905550816002600083815260200190815260200160002060006101000a81548173ffffffffffffffffffffffffffffffffffffffff021916908373ffffffffffffffffffffffffffffffffffffffff160217905550808273ffffffffffffffffffffffffffffffffffffffff168473ffffffffffffffffffffffffffffffffffffffff167fddf252ad1be2c89b69c2b068fc378daa952ba7f163c4a11628f55a4df523b3ef60405160405180910390a4505050565b600081600001549050919050565b6126b4828260405180602001604052806000815250612df7565b5050565b6127528383836040516024016126d09392919061451d565b6040516020818303038152906040527f969cdd03000000000000000000000000000000000000000000000000000000007bffffffffffffffffffffffffffffffffffffffffffffffffffffffff19166020820180517bffffffffffffffffffffffffffffffffffffffffffffffffffffffff8381831617835250505050612dc9565b505050565b8173ffffffffffffffffffffffffffffffffffffffff168373ffffffffffffffffffffffffffffffffffffffff1614156127c6576040517f08c379a00000000000000000000000000000000000000000000000000000000081526004016127bd906145db565b60405180910390fd5b80600560008573ffffffffffffffffffffffffffffffffffffffff1673ffffffffffffffffffffffffffffffffffffffff16815260200190815260200160002060008473ffffffffffffffffffffffffffffffffffffffff1673ffffffffffffffffffffffffffffffffffffffff16815260200190815260200160002060006101000a81548160ff0219169083151502179055508173ffffffffffffffffffffffffffffffffffffffff168373ffffffffffffffffffffffffffffffffffffffff167f17307eab39ab6107e8899845ad3d59bd9653f200f220920489ca2b5937696c31836040516128b7919061432c565b60405180910390a3505050565b6128cf848484612430565b6128db84848484612e52565b61291a576040517f08c379a00000000000000000000000000000000000000000000000000000000081526004016129119061455b565b60405180910390fd5b50505050565b60606000821415612968576040518060400160405280600181526020017f30000000000000000000000000000000000000000000000000000000000000008152509050612ac8565b600082905060005b6000821461299a57808061298390614b32565b915050600a82612993919061498b565b9150612970565b60008167ffffffffffffffff8111156129dc577f4e487b7100000000000000000000000000000000000000000000000000000000600052604160045260246000fd5b6040519080825280601f01601f191660200182016040528015612a0e5781602001600182028036833780820191505090505b5090505b60008514612ac157600182612a279190614a16565b9150600a85612a369190614b7b565b6030612a429190614935565b60f81b818381518110612a7e577f4e487b7100000000000000000000000000000000000000000000000000000000600052603260045260246000fd5b60200101907effffffffffffffffffffffffffffffffffffffffffffffffffffffffffffff1916908160001a905350600a85612aba919061498b565b9450612a12565b8093505050505b919050565b60606000825190506000811415612af65760405180602001604052806000815250915050612c86565b60006003600283612b079190614935565b612b11919061498b565b6004612b1d91906149bc565b90506000602082612b2e9190614935565b67ffffffffffffffff811115612b6d577f4e487b7100000000000000000000000000000000000000000000000000000000600052604160045260246000fd5b6040519080825280601f01601f191660200182016040528015612b9f5781602001600182028036833780820191505090505b5090506000604051806060016040528060408152602001614cfb604091399050600181016020830160005b86811015612c435760038101905062ffffff818a015116603f8160121c168401518060081b905060ff603f83600c1c1686015116810190508060081b905060ff603f8360061c1686015116810190508060081b905060ff603f831686015116810190508060e01b90508084526004840193505050612bca565b506003860660018114612c5d5760028114612c6d57612c78565b613d3d60f01b6002830352612c78565b603d60f81b60018303525b508484525050819450505050505b919050565b612d2784848484604051602401612ca59493929190614424565b6040516020818303038152906040527fd5cf17d0000000000000000000000000000000000000000000000000000000007bffffffffffffffffffffffffffffffffffffffffffffffffffffffff19166020820180517bffffffffffffffffffffffffffffffffffffffffffffffffffffffff8381831617835250505050612dc9565b50505050565b612dc58282604051602401612d439291906144ed565b6040516020818303038152906040527f9710a9d0000000000000000000000000000000000000000000000000000000007bffffffffffffffffffffffffffffffffffffffffffffffffffffffff19166020820180517bffffffffffffffffffffffffffffffffffffffffffffffffffffffff8381831617835250505050612dc9565b5050565b60008151905060006a636f6e736f6c652e6c6f679050602083016000808483855afa5050505050565b505050565b612e018383612fe9565b612e0e6000848484612e52565b612e4d576040517f08c379a0000000000000000000000000000000000000000000000000000000008152600401612e449061455b565b60405180910390fd5b505050565b6000612e738473ffffffffffffffffffffffffffffffffffffffff166131b7565b15612fdc578373ffffffffffffffffffffffffffffffffffffffff1663150b7a02612e9c612291565b8786866040518563ffffffff1660e01b8152600401612ebe9493929190614287565b602060405180830381600087803b158015612ed857600080fd5b505af1925050508015612f0957506040513d601f19601f82011682018060405250810190612f069190613581565b60015b612f8c573d8060008114612f39576040519150601f19603f3d011682016040523d82523d6000602084013e612f3e565b606091505b50600081511415612f84576040517f08c379a0000000000000000000000000000000000000000000000000000000008152600401612f7b9061455b565b60405180910390fd5b805181602001fd5b63150b7a0260e01b7bffffffffffffffffffffffffffffffffffffffffffffffffffffffff1916817bffffffffffffffffffffffffffffffffffffffffffffffffffffffff191614915050612fe1565b600190505b949350505050565b600073ffffffffffffffffffffffffffffffffffffffff168273ffffffffffffffffffffffffffffffffffffffff161415613059576040517f08c379a00000000000000000000000000000000000000000000000000000000081526004016130509061467b565b60405180910390fd5b61306281612225565b156130a2576040517f08c379a00000000000000000000000000000000000000000000000000000000081526004016130999061459b565b60405180910390fd5b6130ae60008383612df2565b6001600360008473ffffffffffffffffffffffffffffffffffffffff1673ffffffffffffffffffffffffffffffffffffffff16815260200190815260200160002060008282546130fe9190614935565b92505081905550816002600083815260200190815260200160002060006101000a81548173ffffffffffffffffffffffffffffffffffffffff021916908373ffffffffffffffffffffffffffffffffffffffff160217905550808273ffffffffffffffffffffffffffffffffffffffff16600073ffffffffffffffffffffffffffffffffffffffff167fddf252ad1be2c89b69c2b068fc378daa952ba7f163c4a11628f55a4df523b3ef60405160405180910390a45050565b600080823b905060008111915050919050565b8280546131d690614b00565b90600052602060002090601f0160209004810192826131f8576000855561323f565b82601f1061321157805160ff191683800117855561323f565b8280016001018555821561323f579182015b8281111561323e578251825591602001919060010190613223565b5b50905061324c91906132c3565b5090565b6040518060c001604052806060815260200160608152602001600081526020016000815260200160008152602001606081525090565b6040518060e00160405280600081526020016060815260200160608152602001606081526020016000815260200160008152602001600081525090565b5b808211156132dc5760008160009055506001016132c4565b5090565b60006132f36132ee84614878565b614847565b90508281526020810184848401111561330b57600080fd5b613316848285614abe565b509392505050565b60008135905061332d81614c79565b92915050565b60008135905061334281614c90565b92915050565b60008135905061335781614ca7565b92915050565b60008151905061336c81614ca7565b92915050565b600082601f83011261338357600080fd5b81356133938482602086016132e0565b91505092915050565b6000813590506133ab81614cbe565b92915050565b6000602082840312156133c357600080fd5b60006133d18482850161331e565b91505092915050565b600080604083850312156133ed57600080fd5b60006133fb8582860161331e565b925050602061340c8582860161331e565b9150509250929050565b60008060006060848603121561342b57600080fd5b60006134398682870161331e565b935050602061344a8682870161331e565b925050604061345b8682870161339c565b9150509250925092565b6000806000806080858703121561347b57600080fd5b60006134898782880161331e565b945050602061349a8782880161331e565b93505060406134ab8782880161339c565b925050606085013567ffffffffffffffff8111156134c857600080fd5b6134d487828801613372565b91505092959194509250565b600080604083850312156134f357600080fd5b60006135018582860161331e565b925050602061351285828601613333565b9150509250929050565b6000806040838503121561352f57600080fd5b600061353d8582860161331e565b925050602061354e8582860161339c565b9150509250929050565b60006020828403121561356a57600080fd5b600061357884828501613348565b91505092915050565b60006020828403121561359357600080fd5b60006135a18482850161335d565b91505092915050565b6000602082840312156135bc57600080fd5b60006135ca8482850161339c565b91505092915050565b60006135df8383614033565b905092915050565b6135f081614a4a565b82525050565b6000613601826148b8565b61360b81856148e6565b93508360208202850161361d856148a8565b8060005b85811015613659578484038952815161363a85826135d3565b9450613645836148d9565b925060208a01995050600181019050613621565b50829750879550505050505092915050565b61367481614a5c565b82525050565b6000613685826148c3565b61368f81856148f7565b935061369f818560208601614acd565b6136a881614c68565b840191505092915050565b60006136be826148ce565b6136c88185614908565b93506136d8818560208601614acd565b6136e181614c68565b840191505092915050565b60006136f7826148ce565b6137018185614919565b9350613711818560208601614acd565b61371a81614c68565b840191505092915050565b6000613730826148ce565b61373a818561492a565b935061374a818560208601614acd565b80840191505092915050565b6000613763600b8361492a565b91507f202d2d204e465420233a200000000000000000000000000000000000000000006000830152600b82019050919050565b60006137a3603283614919565b91507f4552433732313a207472616e7366657220746f206e6f6e20455243373231526560008301527f63656976657220696d706c656d656e74657200000000000000000000000000006020830152604082019050919050565b6000613809602d83614919565b91507f4572726f723a2043726561746f72206d757374206861766520485020746f206160008301527f747461636b20506c617965722e000000000000000000000000000000000000006020830152604082019050919050565b600061386f601c83614919565b91507f4552433732313a20746f6b656e20616c7265616479206d696e746564000000006000830152602082019050919050565b60006138af600e8361492a565b91507f2c20226d61785f76616c7565223a0000000000000000000000000000000000006000830152600e82019050919050565b60006138ef602483614919565b91507f4552433732313a207472616e7366657220746f20746865207a65726f2061646460008301527f72657373000000000000000000000000000000000000000000000000000000006020830152604082019050919050565b6000613955601983614919565b91507f4552433732313a20617070726f766520746f2063616c6c6572000000000000006000830152602082019050919050565b6000613995602c83614919565b91507f4552433732313a206f70657261746f7220717565727920666f72206e6f6e657860008301527f697374656e7420746f6b656e00000000000000000000000000000000000000006020830152604082019050919050565b60006139fb603883614919565b91507f4552433732313a20617070726f76652063616c6c6572206973206e6f74206f7760008301527f6e6572206e6f7220617070726f76656420666f7220616c6c00000000000000006020830152604082019050919050565b6000613a61602a83614919565b91507f4552433732313a2062616c616e636520717565727920666f7220746865207a6560008301527f726f2061646472657373000000000000000000000000000000000000000000006020830152604082019050919050565b6000613ac7602983614919565b91507f4552433732313a206f776e657220717565727920666f72206e6f6e657869737460008301527f656e7420746f6b656e00000000000000000000000000000000000000000000006020830152604082019050919050565b6000613b2d603c8361492a565b91507f222c202261747472696275746573223a205b7b202274726169745f747970652260008301527f3a20224865616c746820506f696e7473222c202276616c7565223a20000000006020830152603c82019050919050565b6000613b9360048361492a565b91507f7d205d7d000000000000000000000000000000000000000000000000000000006000830152600482019050919050565b6000613bd3602083614919565b91507f4552433732313a206d696e7420746f20746865207a65726f20616464726573736000830152602082019050919050565b6000613c13602c83614919565b91507f4552433732313a20617070726f76656420717565727920666f72206e6f6e657860008301527f697374656e7420746f6b656e00000000000000000000000000000000000000006020830152604082019050919050565b6000613c79602983614919565b91507f4552433732313a207472616e73666572206f6620746f6b656e2074686174206960008301527f73206e6f74206f776e00000000000000000000000000000000000000000000006020830152604082019050919050565b6000613cdf600a8361492a565b91507f7b226e616d65223a2022000000000000000000000000000000000000000000006000830152600a82019050919050565b6000613d1f603283614919565b91507f4572726f723a20506f6b656d6f6e204d757374204861766520485020746f204160008301527f747461636b205468652043726561746f722e00000000000000000000000000006020830152604082019050919050565b6000613d85602183614919565b91507f4552433732313a20617070726f76616c20746f2063757272656e74206f776e6560008301527f72000000000000000000000000000000000000000000000000000000000000006020830152604082019050919050565b6000613deb601d8361492a565b91507f646174613a6170706c69636174696f6e2f6a736f6e3b6261736536342c0000006000830152601d82019050919050565b6000613e2b603183614919565b91507f4552433732313a207472616e736665722063616c6c6572206973206e6f74206f60008301527f776e6572206e6f7220617070726f7665640000000000000000000000000000006020830152604082019050919050565b6000613e91602d8361492a565b91507f7d2c207b202274726169745f74797065223a202241747461636b2044616d616760008301527f65222c202276616c7565223a20000000000000000000000000000000000000006020830152602d82019050919050565b6000613ef7607b8361492a565b91507f222c20226465736372697074696f6e223a20225468697320697320616e204e4660008301527f542074686174206c6574732070656f706c6520706c617920696e20746865206760208301527f616d652050696b6163687520416e6420546865204c6567656e6473204f66205460408301527f6865204d756c7469766572736521222c2022696d616765223a202200000000006060830152607b82019050919050565b600060c0830160008301518482036000860152613fb982826136b3565b91505060208301518482036020860152613fd382826136b3565b9150506040830151613fe86040860182614187565b506060830151613ffb6060860182614187565b50608083015161400e6080860182614187565b5060a083015184820360a086015261402682826136b3565b9150508091505092915050565b600060e08301600083015161404b6000860182614187565b506020830151848203602086015261406382826136b3565b9150506040830151848203604086015261407d82826136b3565b9150506060830151848203606086015261409782826136b3565b91505060808301516140ac6080860182614187565b5060a08301516140bf60a0860182614187565b5060c08301516140d260c0860182614187565b508091505092915050565b600060e0830160008301516140f56000860182614187565b506020830151848203602086015261410d82826136b3565b9150506040830151848203604086015261412782826136b3565b9150506060830151848203606086015261414182826136b3565b91505060808301516141566080860182614187565b5060a083015161416960a0860182614187565b5060c083015161417c60c0860182614187565b508091505092915050565b61419081614ab4565b82525050565b61419f81614ab4565b82525050565b60006141b082613cd2565b91506141bc8289613725565b91506141c782613756565b91506141d38288613725565b91506141de82613eea565b91506141ea8287613725565b91506141f582613b20565b91506142018286613725565b915061420c826138a2565b91506142188285613725565b915061422382613e84565b915061422f8284613725565b915061423a82613b86565b9150819050979650505050505050565b600061425582613dde565b91506142618284613725565b915081905092915050565b600060208201905061428160008301846135e7565b92915050565b600060808201905061429c60008301876135e7565b6142a960208301866135e7565b6142b66040830185614196565b81810360608301526142c8818461367a565b905095945050505050565b60006060820190506142e860008301866135e7565b6142f56020830185614196565b6143026040830184614196565b949350505050565b6000602082019050818103600083015261432481846135f6565b905092915050565b6000602082019050614341600083018461366b565b92915050565b6000602082019050818103600083015261436181846136ec565b905092915050565b6000608082019050818103600083015261438381876136ec565b9050818103602083015261439781866136ec565b905081810360408301526143ab81856136ec565b905081810360608301526143bf81846136ec565b905095945050505050565b600060808201905081810360008301526143e481876136ec565b905081810360208301526143f881866136ec565b90506144076040830185614196565b818103606083015261441981846136ec565b905095945050505050565b6000608082019050818103600083015261443e81876136ec565b9050818103602083015261445281866136ec565b90506144616040830185614196565b61446e6060830184614196565b95945050505050565b600060c082019050818103600083015261449181896136ec565b905081810360208301526144a581886136ec565b90506144b46040830187614196565b6144c16060830186614196565b6144ce6080830185614196565b81810360a08301526144e081846136ec565b9050979650505050505050565b6000604082019050818103600083015261450781856136ec565b90506145166020830184614196565b9392505050565b6000606082019050818103600083015261453781866136ec565b90506145466020830185614196565b6145536040830184614196565b949350505050565b6000602082019050818103600083015261457481613796565b9050919050565b60006020820190508181036000830152614594816137fc565b9050919050565b600060208201905081810360008301526145b481613862565b9050919050565b600060208201905081810360008301526145d4816138e2565b9050919050565b600060208201905081810360008301526145f481613948565b9050919050565b6000602082019050818103600083015261461481613988565b9050919050565b60006020820190508181036000830152614634816139ee565b9050919050565b6000602082019050818103600083015261465481613a54565b9050919050565b6000602082019050818103600083015261467481613aba565b9050919050565b6000602082019050818103600083015261469481613bc6565b9050919050565b600060208201905081810360008301526146b481613c06565b9050919050565b600060208201905081810360008301526146d481613c6c565b9050919050565b600060208201905081810360008301526146f481613d12565b9050919050565b6000602082019050818103600083015261471481613d78565b9050919050565b6000602082019050818103600083015261473481613e1e565b9050919050565b600060208201905081810360008301526147558184613f9c565b905092915050565b6000602082019050818103600083015261477781846140dd565b905092915050565b60006020820190506147946000830184614196565b92915050565b600060e0820190506147af600083018a614196565b81810360208301526147c181896136ec565b905081810360408301526147d581886136ec565b905081810360608301526147e981876136ec565b90506147f86080830186614196565b61480560a0830185614196565b61481260c0830184614196565b98975050505050505050565b60006040820190506148336000830185614196565b6148406020830184614196565b9392505050565b6000604051905081810181811067ffffffffffffffff8211171561486e5761486d614c39565b5b8060405250919050565b600067ffffffffffffffff82111561489357614892614c39565b5b601f19601f8301169050602081019050919050565b6000819050602082019050919050565b600081519050919050565b600081519050919050565b600081519050919050565b6000602082019050919050565b600082825260208201905092915050565b600082825260208201905092915050565b600082825260208201905092915050565b600082825260208201905092915050565b600081905092915050565b600061494082614ab4565b915061494b83614ab4565b9250827fffffffffffffffffffffffffffffffffffffffffffffffffffffffffffffffff038211156149805761497f614bac565b5b828201905092915050565b600061499682614ab4565b91506149a183614ab4565b9250826149b1576149b0614bdb565b5b828204905092915050565b60006149c782614ab4565b91506149d283614ab4565b9250817fffffffffffffffffffffffffffffffffffffffffffffffffffffffffffffffff0483118215151615614a0b57614a0a614bac565b5b828202905092915050565b6000614a2182614ab4565b9150614a2c83614ab4565b925082821015614a3f57614a3e614bac565b5b828203905092915050565b6000614a5582614a94565b9050919050565b60008115159050919050565b60007fffffffff0000000000000000000000000000000000000000000000000000000082169050919050565b600073ffffffffffffffffffffffffffffffffffffffff82169050919050565b6000819050919050565b82818337600083830152505050565b60005b83811015614aeb578082015181840152602081019050614ad0565b83811115614afa576000848401525b50505050565b60006002820490506001821680614b1857607f821691505b60208210811415614b2c57614b2b614c0a565b5b50919050565b6000614b3d82614ab4565b91507fffffffffffffffffffffffffffffffffffffffffffffffffffffffffffffffff821415614b7057614b6f614bac565b5b600182019050919050565b6000614b8682614ab4565b9150614b9183614ab4565b925082614ba157614ba0614bdb565b5b828206905092915050565b7f4e487b7100000000000000000000000000000000000000000000000000000000600052601160045260246000fd5b7f4e487b7100000000000000000000000000000000000000000000000000000000600052601260045260246000fd5b7f4e487b7100000000000000000000000000000000000000000000000000000000600052602260045260246000fd5b7f4e487b7100000000000000000000000000000000000000000000000000000000600052604160045260246000fd5b6000601f19601f8301169050919050565b614c8281614a4a565b8114614c8d57600080fd5b50565b614c9981614a5c565b8114614ca457600080fd5b50565b614cb081614a68565b8114614cbb57600080fd5b50565b614cc781614ab4565b8114614cd257600080fd5b5056fe506c617965722061747461636b656420626f73732e204e657720626f73732068703a2025734142434445464748494a4b4c4d4e4f505152535455565758595a6162636465666768696a6b6c6d6e6f707172737475767778797a303132333435363738392b2f426f73732061747461636b656420706c617965722e204e657720706c617965722068703a2025730a4d696e746564204e465420772f20746f6b656e496420257320616e6420636861726163746572496e6465782025730a506c6179657220772f206368617261637465722025732061626f757420746f2061747461636b2e2048617320257320485020616e64202573204144a2646970667358221220616c499257ae49e7bfe04ac011b687718f4560c9cf5c489b859571db52101fec64736f6c63430008000033446f6e6520696e697469616c697a696e6720257320772f20747970652025732c20696d616765202573446f6e6520696e697469616c697a696e6720626f737320257320772f2048502025732c20696d67202573",
  "linkReferences": {},
  "deployedLinkReferences": {}
}